:100000000C9485020C94BD020C94BD020C94BD02AC
:100010000C94BD020C94BD020C94BD020C94BD0264
:100020000C94BD020C94BD020C94BD020C94FE2CE9
:100030000C94AF2D0C94A6270C94BD020C94BD0219
:100040000C94BD020C94BD020C94BD020C94492882
:100050000C94BD020C94BD020C94BD020C94BD0224
:100060000C94BD020C94BD020C94BD020C94BD0214
:100070000C94BD02294314001A0008001500170053
:100080002400250026001C0018000C00120013009C
:100090002A0000002B0004001600070009000A00D7
:1000A0002100220023000B000D000E000F00330082
:1000B00031000000E1001D001B00060019000500D2
:1000C0001E001F00200011001000360037005200F3
:1000D00028000000E0002152E300E20021529100DC
:1000E0002C0027002C0090002152E7005000510006
:1000F0004F000000000000000000000000000000B1
:10010000400041004200000000000000000000002C
:100110004C00000000000000000000000000000093
:100120003D003E003F0000000000000035003400AC
:1001300038000000E10000000000000000000000A6
:100140003A003B003C00000000002F00300000009F
:1001500000000000000021520000000021520000B9
:100160004300440045000000215200000000000050
:10017000000000000000000000000000000000007F
:10018000000000000000000000000000000000006F
:10019000000000000000000000000000000000005F
:1001A000000000000000000000000000000000004F
:1001B000000000000000000000000000000000003F
:1001C000000000000000000000000000000000002F
:1001D000000000000000000000000000000000001F
:1001E000000000000000000000000000000000000F
:1001F0000000000029432178227800000000000060
:1002000000000000000000000000000000000000EE
:1002100000000000207823782578277829780000CE
:1002200000000000000000000000000000000000CE
:100230000000000000002478267828782A78000042
:1002400000000000000000000000000000000000AE
:10025000000000000000000000000000000000009E
:10026000000000000000000000000000000000008E
:100270000000000000010101010101010101020271
:100280000202020202020203030303030303030444
:10029000040404040404050505050506060606060F
:1002A000070707070708080808090909090A0A0AC9
:1002B0000B0B0B0C0C0C0D0D0D0E0E0E0F0F0F106B
:1002C00010111111121213131414151516161717F5
:1002D000181819191A1A1B1B1C1D1D1E1E1F202061
:1002E000212222232424252626272829292A2B2CAB
:1002F0002D2D2E2F30313232333435363738393ACE
:100300003B3C3D3E3F404142434445464748494AC5
:100310004C4D4E4F50515354555658595A5B5D5E93
:100320005F616264656668696B6C6D6F707273752E
:1003300077787A7B7D7E8082838587888A8C8E8F92
:1003400091939596989A9C9EA0A2A3A5A7A9ABADC0
:10035000AFB1B3B5B7BABCBEC0C2C4C6C9CBCDCFAE
:10036000D1D4D6D8DBDDDFE2E4E7E9EBEEF0F3F55C
:10037000F8FAFDFF00000000000000002A2B280012
:100380000000000000000000000000000000002944
:10039000000000002C1E3420212224342627252E84
:1003A000362D3738271E1F202122232425263333BC
:1003B000362E37381F0405060708090A0B0C0D0EE8
:1003C0000F101112131415161718191A1B1C1D2FB4
:1003D0003130232D350405060708090A0B0C0D0ED4
:1003E0000F101112131415161718191A1B1C1D2F94
:1003F0003130354C0000000000000000000000001B
:1004000000000000000000000000000000000000EC
:1004100000000000000000007E0F00D4FFFFFFC7B7
:100420000000007818034F006E007400680065003B
:10043000310035006D0069006E0069000000100396
:1004400068006100790061007300680069000000C5
:100450000403090409024200020100A0FA09040091
:1004600000010301010009211101000122400007E0
:1004700005810308000109040100020300000009CE
:10048000211101000122220007058203200001073B
:100490000503032000011201000200000008848807
:1004A00097080001010200010660FF0961A101092E
:1004B00062150026FF00952075088102096315006A
:1004C00026FF00952075089102C005010906A101CB
:1004D000050719E029E71500250195087501810236
:1004E0009501750881010507190029FF150026FFF0
:1004F00000950675088100050819012905950575FF
:10050000019102950175039101C011241FBECFEF27
:10051000D4E0DEBFCDBF04B603FE18C0809138041E
:1005200090913904A0913A04B0913B048730904BEC
:10053000A740B04B59F4109238041092390410922D
:100540003A0410923B04E0E0F8E3099512E0A0E0E1
:10055000B1E0EAE1F2E602C005900D92A233B107E4
:10056000D9F724E0A2E3B2E001C01D92A833B2079C
:10057000E1F70E940C120C9485300C940000F89462
:10058000E82FE295EF70F0E031A1282F2F7081E085
:1005900090E001C0880F2A95EAF7982F9095932351
:1005A00091A392A1892B82A378940895F894E82FBF
:1005B000E295EF70F0E031A1282F2F7081E090E0FC
:1005C00001C0880F2A95EAF7382B31A392A18095B4
:1005D000892382A37894089508950E94EC020895D7
:1005E00008950E94F0020895E82FF0E0EE0FFF1F3B
:1005F000E45CFD4F808191810895089580EA8A9599
:10060000F1F7089500C008950E94FE020895EF9248
:10061000FF920F931F93CF93DF9380E30E94BF025B
:1006200081E30E94BF0285E60E94BF0284E60E9429
:10063000BF02CDE0D2E085E1E82E82E0F82E8E0107
:10064000D8018D918D018F3F11F00E94BF02E016FD
:10065000F106B1F789918F3F11F00E94BF02EC16AD
:10066000FD06C1F780E30E94BF0281E30E94BF0242
:1006700085E60E94BF0284E60E94BF0288E0ECE3A8
:10068000F2E0DF01982F1D929A95E9F7E4E3F2E09A
:10069000DF011D928A95E9F784E00E94BE110E9455
:1006A000ED02CDB7DEB7E6E00C940E30A8E0B0E086
:1006B000ECE5F3E00C94E82F8E010F5F1F4F88E00C
:1006C000D8011D928A95E9F768015DE1A52E52E0F7
:1006D000B52E712C65E1862E62E0962EF5016190B3
:1006E0005F01FFEF6F16A1F1862D0E94D6020E94D6
:1006F0000203EDE0F2E021E030E0F12CE12C419149
:100700004F3F09F4B0C0A42FA295AF70B0E090960F
:100710008C9190E04F7002C0959587954A95E2F7CD
:1007200080FDA1C0C901E82AF92A220F331F8E16C5
:100730009F0629F7862D0E94BF0261E0E114F104B3
:1007400009F460E0872D0E940403D601ED92FC922B
:100750007394B2E0CB0ED11CE4E07E12BFCF9DE0DB
:10076000C92E92E0D92EF12CE12C88248394912C6F
:10077000BE2CD6018D916D018F3F09F447C00E94B8
:10078000D6020E940203C7010896A40102C0440FCA
:10079000551F8A95E2F7BA0160957095F8018DE1D1
:1007A000482E82E0582EA12CD2017D902D0180810F
:1007B0009181BFEF7B1609F459C0272D22952F7028
:1007C00030E0D90190962C9130E0B72DBF707B2E90
:1007D00002C035952795BA95E2F720FD47C0842BD6
:1007E000952B91838083AA24A394329621E242160A
:1007F00022E05206C9F6F601319780818F3F11F051
:100800000E94BF026A2D8B2D0E9404038FEFE81A0D
:10081000F80AA8E0EA16F10409F0AACF48E050E08F
:10082000B80184E392E00E941D30FF24F394009706
:1008300009F4F12C892B41F088E0F801A4E3B2E03F
:1008400001900D928A95E1F72F2D44E06CE372E060
:1008500084E392E00E94BF110E94F1028F2D28963E
:10086000E0E10C94043090E080E05DCF8623972394
:1008700091838083BACF84E008958430D0F46430CB
:10088000C0F44031B0F4E82FF0E0EE0FFF1FEE0FA0
:10089000FF1FE60FF11D94E0EE0FFF1F9A95E1F7A1
:1008A000E40FF11DEE0FFF1FEC58FF4F859194915F
:1008B000089581E090E0089581E008950E945C042D
:1008C000089581E008950E945C0408950E946304E5
:1008D000089508950E9469040895A6E0B0E0E3E752
:1008E000F4E00C94F52F49835A839E83309149029A
:1008F00089819A8131111AC03E81332399F02223D4
:1009000089F00E947D09182F682F89819A810E94A1
:10091000540969817A81812F0E948E102696E3E026
:100920000C9411300E946809182FF3CF0E947D09A2
:1009300069817A81F1CFFC01262F4081518162814A
:100940007381848195810E946D040895CF93DF9314
:10095000EC0161E00E949B04BE010E945E04DF91F5
:10096000CF910895CF93DF93EC0160E00E949B0448
:10097000BE010E946A04DF91CF91089508950E94FC
:100980004A080E94BE042FEF84E39CE0215080407F
:100990009040E1F700C0000008950E94BF040E944B
:1009A0006D2808950E94BF040E94912808950F9316
:1009B0001F93CF93DF938C0161E00E949B04EC01B5
:1009C000B8010E941A21811106C080E0DF91CF9109
:1009D0001F910F910895B801CE010E9466048823EB
:1009E000A1F3B801CE010E946226882371F3B801F9
:1009F000CE010E948822882341F3B801CE010E94D3
:100A0000D425882311F3B801CE010E942720882322
:100A1000E1F2B801CE010E94A6268823B1F2F801C6
:100A20008581882361F0C330FCE7DF07E9F058F4E3
:100A3000C115ECE7DE07A9F0C130DC47B9F0C80109
:100A40000E946104C3CFCB358CE7D807A9F0CC3521
:100A5000ECE7DE0771F0CA35DC4789F70E94EC0D40
:100A6000EECF0E94CD04B1CF0E94F40D0E94D204BB
:100A7000ACCF0E94E20DE3CF0E94F00DE0CF0E94C8
:100A800088270E94971B0E946E0581E00E94D11E5C
:100A900008950E94720580E00E94D11E0E948D2759
:100AA0000895089581E008950895CF93DF93D82F96
:100AB0000E945205C82F882319F08D2F0E945405DB
:100AC0008C2FDF91CF9108950895CF93C82F0E9466
:100AD00051058C2F0E945505CF91089580E00E940A
:100AE000650508950E94F9260E9465050895CF9333
:100AF0000E94F926C82F809144028C1779F0C09388
:100B000044020E941228609345027093460280932B
:100B10004702909348028C2F0E946505CF9108955B
:100B2000ADE0B0E0E6E9F5E00C94F62F4887598790
:100B30006A877B878C879D8791110E941A0D1F827F
:100B400086E0FE013896DE01119601900D928A959D
:100B5000E1F78D8181110DC029813A814B815C8142
:100B60006D817E818F810E94480C2D96E2E00C946D
:100B70001230CE0101960E94A6048111EDCFF5CF6F
:100B8000FC012481213021F4808191810E94AA09F5
:100B90000895CF93C82F8823B9F08CEF8C0F813A3A
:100BA000A8F46C2F8091F4019091F5010E94232705
:100BB000882329F08C2F0E94DA0C0E94530D8C2F71
:100BC0000E94D20C0E94530DCF91089580E28C0FA9
:100BD0008830D0F7C77081E001C0880FCA95EAF766
:100BE0000E94FD0CEFCF882341F09CEF980F913AC3
:100BF00028F40E94DA0C0E94530D089590E2980F99
:100C00009830D8F7877091E001C0990F8A95EAF77C
:100C1000892F0E94030DEFCF1F93CF93DF93182FDF
:100C2000EB010E94C905209739F4812F0E94F3053A
:100C3000DF91CF911F9108958FE99FE00197F1F720
:100C400000C000002197EFCF70E060E0893311F41D
:100C500060E570E00E940C060895882321F00E9450
:100C6000FD0C0E94530D0895882321F00E94030D6E
:100C70000E94530D0895B0E0A0E0E1E4F6E00C948A
:100C8000EF2F6C01D62FC72FFC011581068102952D
:100C90000F700E94F30CE82E8823E9F0E12E112357
:100CA000D1F08C2F807F803451F080E28D0F88301E
:100CB000F8F0011104C08C2F807E8032C9F0809141
:100CC0003D0382FF15C082E00E94B60D0E94F30C26
:100CD00091E0E82EE926BC2EB2949FE0B922FBE019
:100CE000FB15B8F1EB2DF0E0E957FF4C0C94D92F30
:100CF000E12CF1CF0C2F0F70C07F11F00295007F17
:100D0000112399F0002359F080E28D0F883010F004
:100D1000D11107C0802F0E94FD0C0E94530D8D2F12
:100D20005AC0802F0E940D0DF8CF8D2F0E94F30521
:100D3000002379F080E28D0F883010F0D11104C0CB
:100D4000802F0E94030D03C0802F0E94130D0E946C
:100D5000530DEB2DE850FF0B349720F40E94F92639
:100D60000E946505EE2089F00E94EF0C80FD0DC009
:100D7000F60115820E94E90C0E94C208C6010E9479
:100D80001D080E94E90C0E94CE08CDB7DEB7E9E04D
:100D90000C940B302C2F2F70F22EC07FC03219F024
:100DA000F29480EFF822DD2341F0D130D1F111230C
:100DB00009F444C00023F1F0B2CF80913D0382FDDD
:100DC00015C0112359F0FF2029F08F2D0E94FD0C32
:100DD0000E94530D80E00E94C905BBCF80E00E94B5
:100DE000F305FF2009F4B5CF8F2DABCF112369F0A8
:100DF000011104C08F2D0E942D06ABCF013009F0E8
:100E0000A8CF8F2D0E94310DA4CF0111A2CF8F2D1D
:100E10000E9434068F2D0E943D0D8F2D0E94210DC2
:100E200098CF112321F0063008F093CFE3CF05309F
:100E300008F08FCF8F2D0E9434068BCF0023D1F383
:100E4000D93349F43FEF87EE93E031508040904032
:100E5000E1F700C000008D2F0E94F3057ACF8C2FA0
:100E6000837079F5111175CF4D2F429546954770D6
:100E7000440F440F8D2F8F70042E01C0880F0A94E9
:100E8000EAF72D2F2071D4FF07C02FE030E001C01A
:100E9000220F4A95EAF72095C695C695C370822B16
:100EA000C23049F058F4C13019F00E949E0851CF69
:100EB0000E9498084ECF0E94A4084BCF0E9495082C
:100EC00048CF8695112311F08C2F8170882309F467
:100ED00040CF4D2F429546954770440F440F8D2FBC
:100EE0008F70042E01C0880F0A94EAF72D2F20710D
:100EF000D4FF07C02FE030E001C0220F4A95EAF787
:100F00002095C695C695C370822BC23049F058F41F
:100F1000C13019F00E94ED081CCF0E94E70819CFDC
:100F20000E94F30816CF0E94B00813CFCF70112390
:100F300029F08C2F0E94C2088D2F5DCF8D2F0E942B
:100F400034068C2F0E94CE0804CFD23F41F160F4CA
:100F5000D03FB9F0D13F81F0112309F446C001110F
:100F6000DECE8C2F8F711FC0D33F01F1D43FA1F78C
:100F700080913D0382FD24C08C2F8F71112311F3CA
:100F800012C0112341F0053008F0E3CE8C2F8F7191
:100F90000E94DB08DECE063008F0DBCEF7CF8C2FC8
:100FA0008F711111CFCF0E94C208D3CE112329F027
:100FB0008C2F8F710E94B908CCCE0E94B508C9CE83
:100FC000112349F0CF718C2F0E94C20863E08C2F4F
:100FD0000E94980DBECE81E00E94B60D023008F44A
:100FE000B8CE82E00E94B60DB4CE002359F0D933BA
:100FF00009F031CFEFEFF7EE23E0E150F040204071
:10100000E1F727CF8C2F8F719DCF0F931F93CF9335
:10101000DF93EC01688179818D810E94B5098C0193
:101020000E94F9080E949408B801CE010E943B0674
:10103000DF91CF911F910F910895CF93DF93EC0132
:101040008C81882399F0CE010E94D704811111C0B0
:101050000E94F30C882351F08D81882339F0809110
:101060003D0382FF03C082E00E94B60DDF91CF9165
:101070000895CE010E940508CE010E94B204F6CF69
:101080000E941A0D0E94530D08950E94E20C0E94C6
:10109000400808950E940A0D0E94450808959295FF
:1010A0009F70963091F058F4925F9F70923058F490
:1010B000803F19F030F4883E30F481E008959A5F63
:1010C000F4CF843FD1F380E00895883EB0F3813FB0
:1010D000D1F7F3CFFC012481222339F08081918163
:1010E0000E94AA090E944F08089580E00895A6E092
:1010F000B0E0EDE7F8E00C94F62F2696E2E00C94D1
:101100001230A7E0B0E0E7E8F8E00C94F62F27965D
:10111000E2E00C94123008950E948B0808950E941A
:101120008C0880936302089508950E948F080895A3
:1011300090916302892B0E948F0808959091630219
:1011400089230E948F0808959091630289270E9445
:101150008F0808950E948B0808950E94AA08089598
:101160000E94AD0880936202089580E00E94B0085A
:10117000089591E001C0990F8A95EAF7892F0E949E
:10118000B008089521E030E001C0220F8A95EAF707
:1011900080916202822B0E94B008089521E030E025
:1011A00001C0220F8A95EAF720958091620282237E
:1011B0000E94B008089521E030E001C0220F8A9516
:1011C000EAF78091620282270E94B0080895909108
:1011D0006202892B0E94B0080895909162028923CF
:1011E0000E94B00808959091620289270E94B00879
:1011F00008950895CF93DF93282FFA01862F8770E3
:10120000A1E001C0AA0F8A95EAF7CB0133E09695D9
:1012100087953A95E1F763E070E00E945F2FE80F51
:10122000F91F50E040E0822F90E06191EF0121979B
:101230009C01042E02C0369527950A94E2F721708E
:10124000219526272A23262728834F5F5F4F433087
:10125000510559F7DF91CF910895FB01A82FA77091
:1012600023E0969587952A95E1F763E070E00E9468
:101270005F2FE80FF91F50E040E080E0219130E05F
:101280000A2E02C0369527950A94E2F7217033277B
:10129000042E01C0220F0A94EAF7822B4F5F5F4FA2
:1012A0004330510559F70895262F943080F480314A
:1012B00070F4692F70E094E0660F771F9A95E1F75C
:1012C000680F711D4AE452E0822F0E94FA080895C7
:1012D000943088F4803178F4292F30E094E0220FA4
:1012E000331F9A95E1F76AE472E0820F932F911D04
:1012F0000E942D09089580E00895CF92DF92FF9219
:101300000F931F93CF93DF936C0100916202809142
:101310006302082BC3E0D0E010E0FC2EC8010C2EC5
:1013200002C0959587950A94E2F780FD0CC021973D
:10133000A0F7F12C8F2DDF91CF911F910F91FF908E
:10134000DF90CF900895B6018C2F0E949A100197DC
:1013500071F3F0CFCF93DF93EC010E947D09BE01C2
:101360000E949A10DF91CF9108951F93CF93DF933E
:10137000EB0190914902992339F0CB010E94AA090F
:10138000DF91CF911F910895882369F0CB010E94CE
:101390007D09182F682FCE010E945409BE01812FAC
:1013A0000E949A10EDCFCB010E946809182FF6CF4A
:1013B000E1E0F0E0DF0102C0AA0FBB1F6A95E2F78F
:1013C000BD01DF0102C0AA0FBB1F4A95E2F76A2BDD
:1013D00001C0EE0F2A95EAF7962F9823961302C0C4
:1013E0008E2B0895E0958E230895242F462F682F85
:1013F000809162020E94D8090E94B0080895CF939C
:10140000DF93C0916402809165028C1303C0DF9169
:10141000CF910895D0E0CE0167E070E00E945F2F89
:10142000FC01EA59FD4F2081318142815381648161
:10143000758186810E9481082196C770E4CF209132
:101440009E0230919F024091A0025091A1026091B2
:10145000A2027091A3028091A4020E9481080895C3
:10146000CF93DF938091A402807F09F04FC08091D9
:10147000A302882309F44AC02091640240916502C6
:10148000A0919F02B0919E02C091A002D091A102B2
:101490004217E1F130E0C90167E070E00E945F2F80
:1014A0008A599D4FFC018481882399F1C90167E025
:1014B00070E00E945F2FFC01EA59FD4F81818A1381
:1014C00028C080818B1325C08581811122C0828133
:1014D00093818C1B9D0B883C9105D8F48091A402CC
:1014E0008F7080618093A402C90167E070E00E9460
:1014F0005F2FFC01E459FD4F90819F7090619083B4
:101500008EE992E00E941D080E94FF09DF91CF91B1
:1015100008952F5F3F4F2770BBCFA82FB62F209184
:10152000640240916502241302C080E0089530E017
:10153000C90167E070E00E945F2FFC01EA59FD4F8E
:101540008181B81306C08081A81303C085818111F1
:10155000EDCF2F5F3F4F2770E6CFA4E1B0E0E3EB84
:10156000FAE00C94EC2F8C0186E0F801DE011F9666
:1015700001900D928A95E1F7D80114968C911497F9
:101580001596EC9015979EE9A92E92E0B92E9091B0
:10159000A20291111FC08823D1F0EE20A9F0C8014A
:1015A0000E946A08F82E882379F087E0F801D501B7
:1015B00001900D928A95E1F7C5010E94C0050E9435
:1015C000300A0E941F0A3DC0C8010E941D08FF2466
:1015D000F39437C0F801C080D18082809380F0906E
:1015E000A3022091A0023091A102A401421B530B3F
:1015F000FF2009F4F6C0483C510508F0A5C0882337
:1016000001F190919F028091A402282F207F09F080
:1016100067C09D111BC090919E029C1117C0E110E4
:1016200059C08F7080618093A4020E941F0A8EE9C6
:1016300092E00E941D088091A402D80116968C9316
:10164000F12C8F2D6496ECE00C940830E11042C030
:101650006D2D8C2D0E948D0AE82E882371F08EE965
:1016600092E00E941D0887E0EEE9F2E0DF011D92A2
:101670008A95E9F70E941F0AE3CFCF86D88A8F8523
:1016800098890E94AA09292F22952F70243058F496
:101690009F70223088F0992399F0F8019681907F0D
:1016A00079F4FE2CCECF2A5F2F70223068F0C8016B
:1016B0000E941D08EF2CF5CF992311F0882389F3A0
:1016C000805E883070F3F3CF803F58F3815F8330C2
:1016D00070F7E7CF8091A40281608093A402B0CF1D
:1016E0009D1107C090919E029C1103C0EE2009F449
:1016F0009CC0C8010E946A08882309F465CFEE20C7
:1017000009F462CF8091A402803288F020919E0279
:1017100030919F02398728879B868A869091A20202
:101720009C871D868E87CE0108960E941D0887E043
:10173000F801AEE9B2E001900D928A95E1F70E94BE
:10174000300A0E941F0A43CF9091A402292F207FC4
:1017500091F4682D9A8A898AA6017A899E2D0E9421
:1017600077088EE992E00E941D0887E0F50111924A
:101770008A95E9F77FCF882309F463CF80919F0290
:101780008D1111C080919E028C110DC0E1100BC013
:1017900016969C93C8010E941D0887E0F5011192DE
:1017A0008A95E9F74ECFC8010E946A08882309F498
:1017B0000BCFEE2009F408CF8091A402803208F408
:1017C000B6CF20919E0230919F023A8329839C825A
:1017D0008B829091A2029D831E828F83CE010196FF
:1017E000A4CF483C510508F045C0882309F4EFCE4A
:1017F000FE2CEE2009F4E8CE80919F028D112CC0C2
:1018000080919E028C1128C08091A40280FD1BC093
:10181000982F907FC1F016968C931697903F39F0D1
:10182000982F907F905F8F70892B16968C93C801AC
:101830000E941D0887E0F801AEE9B2E001900D9228
:101840008A95E1F7BECE87E0F801AEE9B2E00190FB
:101850000D928A95E1F7F5CEC8010E946A088111C0
:1018600066CF8091A40281608093A402C8010E9487
:101870001D08E7CE682D9A8A898AA6017A899E2D4D
:101880000E94770887E0F50111928A95E9F799CED1
:10189000AEE0B0E0EEE4FCE00C94F62F2887398748
:1018A0004A875B876C877D878E87CE0108960E946A
:1018B000AD0A8823A9F06C85662341F02885398517
:1018C0004A855B857D858E850E94810880916402B2
:1018D0009091650289133EC02E96E2E00C9412307E
:1018E00087E0FE013896DE01119601900D928A95EF
:1018F000E1F78C85882351F38091650290E09C018B
:101900002F5F3F4F27703327409164024217130621
:1019100099F067E070E00E945F2FDC01AA59BD4F8B
:1019200097E0FE01319601900D929A95E1F7209390
:1019300065020E94FF09CACF0E944A081092650200
:101940001092640287E0EEE9F2E0DF011D928A95D1
:10195000E9F7BCCF90E067E070E00E945F2F8A5902
:101960009D4F0E94AD0A882309F4B6CF809164028E
:1019700090E067E070E00E945F2FFC01EA59FD4FA4
:1019800020813181428153816481758186810E94E9
:1019900081088091640290E0019687709927809376
:1019A000640294CF682F8091F4019091F5010E9418
:1019B00059270895682F8091F4019091F5010E94B4
:1019C0005C2708958091F4019091F5010E945F27B2
:1019D00008958091AD0286958695869508958091AB
:1019E000AD02877008959091AD02977081E009F47F
:1019F00080E008958091B90208959091B902892BF1
:101A00008093B902089580959091B902982390939C
:101A1000B90208951092B90208959091B802892BE5
:101A20008093B802089580959091B802982390937E
:101A3000B80208951092B802089508950E941D0DED
:101A400008959091AE02292F282331F080958923A3
:101A50008093AE020E941E0D089508950E942D0DE0
:101A600008959091AF02292F2823281729F0982B49
:101A70009093AF020E942E0D08959091AF02292FEE
:101A8000282331F0809589238093AF020E942E0D88
:101A900008958091AF02882329F01092AF0280E070
:101AA0000E942E0D0895CF93DF93E091F401F09101
:101AB000F5018091B9028083E091F401F091F50184
:101AC00080819091B802892B80839091AF029923F5
:101AD00081F0E091F401F091F5018081892B808300
:101AE0008091F4019091F5010E94112781110E94CB
:101AF000490DC091F401D091F50148E050E065EA4C
:101B000072E0CE010E941D30892B59F088E0FE0161
:101B1000A5EAB2E001900D928A95E1F7CE010E940C
:101B20000627DF91CF91089508950E94940D08959E
:101B300090913D0392FF11C0982F990F990F990F23
:101B4000962B9093AD020E94C2088091AD028695BB
:101B5000869586950E94950D08950E94C208089565
:101B60001092AD0280E00E94950D08959091AD0213
:101B7000809589238093AD02282F277069F48917F7
:101B800059F090913D0392FF07C086958695869502
:101B90000E94CE080E94B00D089590913D0392FBE3
:101BA000222720F9281769F080FB92F990933D03D2
:101BB00080913C0390913D030E94160E82E00E94AA
:101BC000B60D089580913D0382FB882780F991E04E
:101BD00089270E94CD0D089581E00E94CD0D0895C2
:101BE00080E00E94CD0D08956FEF7FEF90E080E0E0
:101BF0000E947F30089590E080E00E944B30863E46
:101C00009E4F19F40E94B120089580E0089582E06B
:101C100090E00E944330089583E090E00E944330BA
:101C2000089584E090E00E944B300895BC0184E068
:101C300090E00E947F300895AB01BC018FE090E0FE
:101C40000E9473300895AB01BC0183E190E00E94D3
:101C50007330089560E070E0CB010E94230E089578
:101C600060E070E0CB010E941C0E0E942A0E0895D5
:101C7000A8E0B0E0EEE3FEE00C94F62F66EE7EEF17
:101C800090E080E00E947F3060E082E090E00E947F
:101C9000613060E083E090E00E9461301092630266
:101CA00060E074E184E090E00E947F3060E086E0D4
:101CB00090E00E9461306FEF87E090E00E94613019
:101CC00040E050E0BA0188E090E00E94733060E0AC
:101CD00084E290E00E94613060E087E190E00E9441
:101CE000613060E08CE090E00E94613060E08DE067
:101CF00090E00E94613019821A821B821C821D8230
:101D00001E821F82188648E050E068E170E0CE0134
:101D100001960E94513040E050E0BA0180E290E02C
:101D20000E94733080E00E94CA200E94FA200E9424
:101D3000300E2896E2E00C9412300E94380E08957E
:101D4000682F8EE090E00E9461300895A6E0B0E038
:101D5000ECEAFEE00C94F42F0E9406288C0180919E
:101D6000BA029091BB028017910781F019821A8202
:101D70000E940628682F49815A81792F80E090E0DF
:101D80000E9490051093BB020093BA022696E4E0ED
:101D90000C9410300E9412286093C8027093C902FC
:101DA0008093CA029093CB026093C4027093C502E1
:101DB0008093C6029093C7020895089508950E94E3
:101DC000DE0E089508950E94E20E089581E00895C0
:101DD00084E891E10E94EF260E94DD0E0E94DF0E52
:101DE00008950E94E60E08950E94F10E0895089548
:101DF00008950E94F70E0E94F80E08950E94A31104
:101E00000E9464050E946A1E08950E94FD270E9498
:101E10000A210E9407030E94FE0E0E94E30E08950D
:101E2000A6E0B0E0E6E1FFE00C94EA2F0E94E60EA7
:101E300081110AC00E94A60E0E94971B0E9477057E
:101E40002696EEE00C9406300E9456032CEB822E70
:101E500022E0922E640110E0F601E190F1906F0112
:101E6000812F0E94F4021F5F143009F44EC0E8165F
:101E7000F90691F38091CC0281FD0E94FD020E943F
:101E8000F40E682E10E0812F0E94F4027C01F40110
:101E9000A190B1904F018A159B0589F1A826BF2416
:101EA00000E0CC24C394D12CC5018C219D21892B29
:101EB000E9F077247394C7018C219D21892B09F4C3
:101EC000712C662071F009831A830E940628682FFE
:101ED0008B839C8349815A81792F81E0972D0E94C1
:101EE0009005472D602F812F0E94E41A0F5FCC0CC4
:101EF000DD1C0031C9F6F4013297F182E0821F5FE8
:101F0000143009F60E94CA0E97CFE816F90609F0B8
:101F1000B1CF90CF1F93CF93DF930E949F10EC011E
:101F2000C11582E5D80708F03FC0C11590E5D90773
:101F300008F0C8C0C83ED105C0F4C03ED10580F449
:101F4000C53AD10548F4C430D10550F4C130D105AB
:101F500039F0D0E0C0E004C0CD3CD105D0F3D0656D
:101F6000CE01DF91CF911F910895C11580E4D8076C
:101F700008F053C0C11590E2D90708F0BDC0C115E3
:101F800081E0D80730F38D2F0E944111182FCE0128
:101F900099270E949F10C12FD0E0DC2FCC27CC279F
:101FA000DF71C82BD92BDCCFC03892E5D907A8F454
:101FB000C03682E5D80708F067C0C03492E5D9077B
:101FC00008F04BC0C03282E5D80788F1CF71D0E06D
:101FD000DC2FCC27C16FD06AC3CFC03C92E5D907B4
:101FE00080F48C2F8F71C03AD24508F464C00E94EF
:101FF0004111C82FD0E0DC2FCC27CC27DF71D06275
:10200000AFCFC03E82E5D80708F0A3CFDC2FCC27A6
:10201000CC27DF71C06FD06AA3CFCE0199270E9471
:102020009F10CC27DF70C82BD92BD06A99CF2C2FCB
:102030002695269530E085E0220F331F8A95E1F73B
:102040008C2F8370C1E0D0E002C0CC0FDD1F8A95D9
:10205000E2F7C22BD32BDD6883CF2C2F2695269554
:10206000277030E0B5E0220F331FBA95E1F78C2FCF
:102070008370C1E0D0E002C0CC0FDD1F8A95E2F78B
:10208000C22BD32BDC686CCF2C2F2695269527707E
:1020900030E0A5E0220F331FAA95E1F78C2F837063
:1020A000C1E0D0E002C0CC0FDD1F8A95E2F7C22B61
:1020B000D32BDA6855CFC82FD0E0DC2FCC27C46FE4
:1020C000D06A4ECF8C2F8F710E94411155E0D6956A
:1020D000C7955A95E1F7CF70D0E0DC2FCC27282F99
:1020E00030E084FF05C044E0220F331F4A95E1F73A
:1020F000C22BD32BD06934CF8D2F8F710E94411109
:10210000182FCE0199270E949F10C12FD0E0DC2FFD
:10211000CC27CC27DF71C82BD92B71CF462F743039
:1021200030F4603120F4672F0E94EC24089590E091
:1021300080E008950E948E100E948A0F08958238D0
:102140009105B9F1B0F48133910509F47DC048F4EB
:102150008932910509F46DC08A32910509F47BC07A
:1021600008958533910509F45FC08933910509F11C
:102170000895833E9105D9F138F4803E910529F107
:10218000823E910579F10895863E9105D9F1873E09
:10219000910509F43EC0843E910541F520913D032F
:1021A00021FF24C080913C0384FD19C087EE90E09C
:1021B000089520913C03237009F05AC020913D03FB
:1021C00023FF14C089E290E0089520913C0320FD94
:1021D00038C030913D0330FF09C024FF43C090E078
:1021E00080E0089520913C0322FDF7CF08952091CF
:1021F0003C0322FD3AC030913D0330FD39C024FF3D
:10220000F5CFEDCF20913C0323FFF0CF24FDE7CFA6
:10221000CDCF20913C0323FD2EC030913D0331FFF3
:10222000EECF84EE90E0089520913C0325FFDECFB1
:10223000C9CF20913C0325FD21C020913D0323FF00
:10224000D5CF89E390E0D2CF20913C0326FFCECFBB
:102250008AE290E0089520913C0326FFC7CF81E3F6
:1022600090E0089583EE90E0089582EE90E0089566
:1022700080EE90E0089586EE90E0089585E390E08A
:10228000089590913C0392FF06C0282F28712830B2
:10229000F9F4877F846093FF06C0282F28712831C6
:1022A000F1F4877E846120913D0320FF06C0382F22
:1022B00038713830D9F4877F816021FF06C0282F1C
:1022C00028712831D1F4877E816194FD877E08953D
:1022D000282F24712430F9F68B7F8860DCCF282FDB
:1022E0002471243101F78B7E8861DDCF382F317165
:1022F000313019F78E7F8860E0CF282F217121318E
:1023000021F78E7E8861E1CF80E008950E94F40D70
:1023100008950E9456032FEF86E791E021508040F8
:102320009040E1F700C000000E94560380E00E9448
:10233000F40280FF04C00E9486110E946D28089557
:102340000E94891108950E94FB0D811102C00E9414
:102350009D0E0E94070E8093CC020E94110E909356
:102360003D0380933C030E94A0110E940C0E0E942A
:102370009508809162020E94AD0808950895CF9259
:10238000DF92EF92FF921F93CF93DF936C017B015B
:10239000C42F222349F081E08093CF020E940628B7
:1023A0009093CE028093CD021091CF0211110AC0FA
:1023B00010E0812FDF91CF911F91FF90EF90DF9080
:1023C000CF9008958091CD029091CE020E941E2858
:1023D000059770F3D0E0CC0FDD1FAE01B601C70149
:1023E0000E941D30892B41F0AE01B601C7010E9449
:1023F0002A301092CF02DDCF10E0FBCF0E94E529FA
:102400000E94050F0E94F22908950E94F7290E9458
:10241000100F0E94112A08950E94A5270E94CB291F
:102420000E94E80E0E94FE110E9405120E94F90E01
:10243000FBCFEF92FF920F931F93CF93DF93982FD1
:1024400071110FC0442329F0E82FF0E0EC58FD4F44
:102450009491692F792F892FCDB7DEB7E6E00C94E0
:102460000E30262F30E0C72FD0E0E82FF0E04423D5
:1024700021F0EC58FD4FE491F0E0C90166E070E016
:102480000E945F2F0FEF10E0B8010E94702FDB0158
:10249000220F331FCB0165E570E00E945F2F281BE0
:1024A000390BE22EEE0CE20EC8018C1B9D0BBF0116
:1024B0000E945F2F292FF12CC701BE010E945F2FC0
:1024C000492F50E0C801841B950BBF010E945F2F6C
:1024D000392FC8018E199F09BE010E945F2F492F15
:1024E00050E0C801841B950BBF010E945F2F892F0C
:1024F0007E2FA230B10589F038F4109759F011976A
:1025000081F0922F232F06C0A430B10569F080F02E
:102510001697B9F7692F822F9FCF9E2F722F282FE2
:10252000F9CF9E2F732FF6CF922F2E2F782FF2CF29
:10253000722F2E2F932FEECF41E00E941912089593
:10254000FC01A82F029710F14FEFE13E8EE1F80752
:1025500038F4AF0195E0569547959A95E1F7485FB5
:10256000B1E08B2F840F9927991F9C0135952795F2
:10257000A22FC901B9010E945F2FE817F90740F4A3
:102580004FEF420F4B1768F7AFEFAB0F8A2F08954D
:102590002F3FE1F3B1E0B20FF5CF8091FC019091B4
:1025A000FD0165E078E00E945F2F875E994C909373
:1025B000FD018093FC01890F0895282F8074E22F7C
:1025C00026FDE0956E2F6F7081116F5FE695E695A1
:1025D000E695E670F0E0EF5DFD4F818170E090E000
:1025E0000E945F2FAC0184E0559547958A95E1F7ED
:1025F0008081840F27FD819580580895CF93C62F41
:10260000382FA72FB0E0E42FF0E0EE0FFF1FE05CC3
:10261000FE4F808190E064EE70E00E945F2F492FB2
:1026200050E0CA014C96821B910997FF03C0919517
:102630008195910923E0880F991F2A95E1F7AD0153
:10264000481B590BCA0157FF02C090E080E0BD0152
:102650000E945F2F6C2F792F832FCF910895CF93F6
:10266000DF93D62FC72FA82FB0E0E42FF0E0EE0FB6
:10267000FF1FE05CFE4F808190E064EE70E00E94FE
:102680005F2F492F50E0445E5F4FCA01821B9109C2
:102690009C0197FF03C031952195310983E0220FFA
:1026A000331F8A95E1F7CD01821B930B97FF02C080
:1026B00090E080E0BD010E945F2F6D2F7C2F892F5D
:1026C000DF91CF910895622F0895E42FF0E0EE0F8F
:1026D000FF1FE05CFE4F6081621B0895E42FF0E075
:1026E000EE0FFF1FEF5BFE4F6081621B0895322FDC
:1026F00050E0FA01EE0FFF1FEF5BFE4F908190520A
:1027000097FD9195440F551FFA01E05CFE4F208123
:10271000231B330B290F311D97FD3A95620F089546
:10272000EF920F93372F282F802F90E063E070E017
:102730000E945F2F959587956E2D680F732F822FBE
:102740000F91EF9008950F93CF93DF93D72FC82F5A
:1027500047FD419568E370E0641B710947FD73957F
:10276000CB010E945F2FFC01C901B9010E945F2FBC
:102770008E0F9F1F0E94A012982F990F890F682F0C
:10278000600F7D2F8C2FDF91CF910F9108950F93C4
:102790001F93CF93A62FC72FB82F10E0F801EE0F8D
:1027A000FF1FEF5BFE4F8081622F220F770B80525D
:1027B000990B0E945F2F9C01000F111FF801E05C34
:1027C000FE4F8081642F440F770B8057990B0E9436
:1027D0005F2F820F931F97FF02C081589F4F880F72
:1027E000892F881F990BA80F6A2F7C2F8B2FCF91D1
:1027F0001F910F9108950F931F93CF93A62FC72F6B
:10280000B82F10E0F801EE0FFF1FE05CFE4F3081A3
:10281000305737FD3195000F111FF801EF5BFE4F68
:102820008081622F220F770B8052990B0E945F2FBD
:10283000FC01642F440F770B88E390E0831B910920
:1028400037FD93950E945F2F8E0F9F1F63E070E00E
:102850000E945F2F97FF02C081589F4F880F892FDA
:10286000881F990BA80F6A2F7C2F8B2FCF911F9158
:102870000F9108950F931F93CF93DF93D62F072FB8
:10288000182FC42F822F0E94DD12EC2FF0E0EE0FE4
:10289000FF1FE05CFE4F20812058820F87FD81954D
:1028A000880F90E06CE070E00E945F2F6D2F690F41
:1028B000702F812FDF91CF911F910F910895362FA7
:1028C000B72FA82FE42FF0E0EE0FFF1FE05CFE4FC4
:1028D0008081821B87FD819590E068E170E00E9415
:1028E0005F2F692F630F7B2F8A2F0895362F272F95
:1028F0004095682F70E0842F90E00E945F2F632F37
:10290000722F892F089522E8241B08F420E0620F1B
:1029100008959091F802892B8093F8020895FC01A4
:102920009B01009729F480E077FF2BC080E8089591
:10293000AC0197FF04C044275527481B590BB90128
:10294000640F751F37FD10C0241B350BC901A5E0AE
:10295000880F991FAA95E1F70E94842F80E2861BB9
:10296000F7FF0FC081950895CB0165E0880F991F8F
:102970006A95E1F7BA01621B730B0E94842F80E60F
:10298000EECF08950F931F93CF93DF93162FC72F8A
:10299000D82FC901272F201B022FBA010E948F14A4
:1029A000982F990F990F891B800F6C2F70E090E082
:1029B0000E945F2F612F792F8D2FDF91CF911F9173
:1029C0000F9108950F931F93CF93DF93162FD72F57
:1029D000C82FC9012C2F201B022FBA010E948F146F
:1029E000982F990F990F891B800F6C2F70E090E042
:1029F0000E945F2F612F7D2F892FDF91CF911F9133
:102A00000F910895EF920F931F93CF93DF93162F9B
:102A1000C72FD82FC9010E19070FBA010E948F14B2
:102A2000081B6C2F70E0802F90E00E945F2F612FB9
:102A3000792F8D2FDF91CF911F910F91EF900895F6
:102A4000EF920F931F93CF93DF93162FD72FC82F9B
:102A5000C9010E190C0FBA010E948F14081B6C2FAC
:102A600070E0802F90E00E945F2F612F7D2F892FD3
:102A7000DF91CF911F910F91EF9008950F93CF9316
:102A8000DF93D72FC82FC901BA010E948F14682F76
:102A9000600F7D2F8C2FDF91CF910F910895EF92D2
:102AA0000F93CF93DF93D72FC82FC9010E19BA0107
:102AB0000E948F14602F681B7D2F8C2FDF91CF9188
:102AC0000F91EF90089548E050E068E170E08EE3E8
:102AD00093E00E9451301092F80208950E949C12D7
:102AE00008950E9463150895EEE3F3E085E3808383
:102AF00080910A0290910B02A0910C028183928333
:102B0000A3838FE784838FEF85830E9463150895E5
:102B100080E008950F931F93CF93DF93C82FD62F94
:102B20008A010E9488156C2F70E094E0660F771F71
:102B30009A95E1F760507F4F6D0F711DFB019081F9
:102B40009F3F29F0F801E80FF11D90838F5FDF911F
:102B5000CF911F910F910895E0912F02F0913002D3
:102B600009950895E0912B02F0912C0209950895A2
:102B7000B0E0A0E0EEEBF5E10C94E92F5C014B0135
:102B8000FC0180816CE00E94562FC82F1CE0180FBA
:102B9000F12E1D3310F09CE3F92E809142038695AF
:102BA000609146037091470390E00E945F2F592E79
:102BB000D0E0CF1548F081E01C3308F080E0CDB7BD
:102BC000DEB7EFE00C940530FE01E854FE4F808143
:102BD000F50191818923B1F19E01220F331F20500D
:102BE0003F4FF901E05CFF4F8081482F4057550B64
:102BF0006A012F5B3F4FF9018081282F2052330B50
:102C00003901CA01BA010E945F2F9C01C301B301BF
:102C10000E945F2F820F931F0E94A012082F6091C5
:102C20003F037091400380914103E52C9301A6017D
:102C3000F40109950E946E15462F282F672FCE01AB
:102C40000E94B2152196B5CF62E075E10E94B815D9
:102C5000089560E275E10E94B815089560E973E196
:102C60000E94B81508956FE475E10E94B8150895A3
:102C7000B0E0A0E0EEE3F6E10C94EE2F6C017B01F6
:102C8000FC0180816CE00E94562FC82F1CE0180FB9
:102C9000B12E1D3310F03CE3B32E80914203869594
:102CA000609146037091470390E00E945F2FA92E28
:102CB000D0E0CB1548F081E01C3308F080E0CDB7C0
:102CC000DEB7EAE00C940A30FE01E854FE4F808142
:102CD000F6019181892311F1CE01880F991F80504F
:102CE0009F4FFC01EF5BFF4F20812052330B805C34
:102CF0009F4FFC0140814057550B60913F037091FD
:102D00004003809141030A2DF70109950E946E1539
:102D1000462F282F672FCE010E94B2152196C9CFCA
:102D200062EC74E10E943816089562EE74E10E942C
:102D30003816089563EA73E10E94381608956EE329
:102D400075E10E9438160895B0E0A0E0EAEAF6E1E5
:102D50000C94EF2F6C017B01FC0180816CE00E94E0
:102D6000562FC82F1CE0180F012F1D3308F00CE35D
:102D7000209142032695269531E0230F08F42FEF8A
:102D80006091460370914703822F90E00E945F2F6D
:102D9000B92ED0E0C01748F081E01C3308F080E085
:102DA000CDB7DEB7E9E00C940B30FE01E854FE4FDE
:102DB0008081F6019181892391F060913F037091A8
:102DC0004003809141032B2D4C2FF70109950E9460
:102DD0006E15462F282F672FCE010E94B21521961F
:102DE000D9CF6EEF72E10E94A41608956FE273E1ED
:102DF0000E94A416089563E673E10E94A416089544
:102E000065E673E10E94A41608956EE673E10E94E0
:102E1000A416089567E773E10E94A41608956AE373
:102E200074E10E94A41608956FE574E10E94A4164F
:102E30000895B0E0A0E0EFE1F7E10C94EB2F5C0126
:102E40006B01FC0180816CE00E94562FC82F1CE0B2
:102E5000180F912E1D3310F03CE3932E8091420306
:102E600086958695609146037091470390E00E9495
:102E70005F2FF92E80E4890F0E94DD1290E8892EE1
:102E8000880E8F2D0E94DD1220E8722E780ED0E081
:102E9000C91548F081E01C3308F080E0CDB7DEB7FB
:102EA000EDE00C940730FE01E854FE4F8081F501FF
:102EB00091818923A1F060913F037091400380913B
:102EC0004103EF2C0C2F272D482DF60109950E9468
:102ED0006E15462F282F672FCE010E94B21521961E
:102EE000D7CF67EC73E10E94191708956BEF73E178
:102EF0000E9419170895B0E0A0E0E1E8F7E10C9412
:102F0000EE2F8C017B01FC0180816CE00E94562F2A
:102F1000C82F2CE0B22EB80EAB2CFCE3FB1510F43E
:102F20009CE3A92E2091420331E0230F08F42FEFF8
:102F300030E050E040E06FEF7FEF80E090E00E94F3
:102F4000BA2F6901D0E09C2FCA1550F081E0FBE355
:102F5000FB1508F480E0CDB7DEB7EAE00C940A3048
:102F6000FE01E854FE4F8081F8012181822329F17E
:102F700040914A034150042E000C550B47FF1FC0DF
:102F8000B6012091420331E0230F08F42FEF822F86
:102F900090E00E945F2F60913F0370914003809109
:102FA0004103492F50E0F70109950E946E15462F05
:102FB000282F672FCE010E94B2152196C4CFFA01A7
:102FC000E65BFC4F818989130AC0FA01EE0FFF1FEF
:102FD000E65BFC4F618D728D6C157D0590F2415062
:102FE0005109CCCF66E774E10E947B17089563E82E
:102FF00074E10E947B170895B0E0A0E0E2E0F8E100
:103000000C94EF2F7C01FC0180816CE00E94562F14
:10301000C82F1CE0180F012F1D3308F00CE360913E
:103020003F0370914003809141030E946E15D62E9C
:10303000C72EB82ED0E0C01748F081E01C3308F04E
:1030400080E0CDB7DEB7E9E00C940B30FE01E85428
:10305000FE4F8081F7019181892331F02B2D4D2D79
:103060006C2DCE010E94B2152196E5CFB0E0A0E014
:10307000ECE3F8E10C94EC2F7C01FC0180816CE026
:103080000E94562FC82F1CE0180F012F1D3308F087
:103090000CE3C0904003D0904103D0913F036D2FCB
:1030A0007C2D8D2D0E946E15B62EA72E982E609128
:1030B00042036D0F7C2D8D2D0E946E15D62EC72ECE
:1030C000882ED0E0C01748F081E01C3308F080E083
:1030D000CDB7DEB7ECE00C940830FE01E854FE4FAB
:1030E0009081F7018181892359F0282D4D2D6C2D78
:1030F00090FD03C0292D4B2D6A2DCE010E94B215E3
:103100002196E0CFB0E0A0E0E8E8F8E10C94EF2FE2
:103110007C01FC0180816CE00E94562F1CE0180F9E
:10312000012F1D3308F00CE3D0904003C090410301
:103130002091420330E096E0220F331F9A95E1F789
:10314000B32EC82FD0E0C01748F081E01C3308F040
:1031500080E0CDB7DEB7E9E00C940B30FE01E85417
:10316000FE4F8081F70191818923C1F0FE01EE0FAE
:10317000FF1FEF5BFE4F808182958F706B2D0E9449
:10318000562F60913F03680F7D2D8C2D0E946E1588
:10319000462F282F672FCE010E94B2152196D3CF3C
:1031A000B0E0A0E0E6EDF8E10C94EF2F7C01FC012B
:1031B00080816CE00E94562F1CE0180F012F1D33F8
:1031C00008F00CE3D0904003C090410320914203EB
:1031D00030E046E0220F331F4A95E1F7B32EC82FA7
:1031E000D0E0C01748F081E01C3308F080E0CDB794
:1031F000DEB7E9E00C940B30FE01E854FE4F80810D
:10320000F70191818923E9F0FE01EE0FFF1FE05CD9
:10321000FE4F808190E06B2D70E00E945F2F25E0D3
:10322000959587952A95E1F760913F03680F7D2D6D
:103230008C2D0E946E15462F282F672FCE010E94DD
:10324000B2152196CECFB0E0A0E0E9E2F9E10C940E
:10325000EF2F8C01FC0180816CE00E94562FC82F5B
:103260009CE0F92EF80EEF2CFCE3FF1510F48CE334
:10327000E82EC0903F03D0904003D091410380914D
:103280004203869586958695609146037091470323
:1032900090E00E945F2F892F0E94DD12805887FDE9
:1032A0008195880F6D2F70E090E00E945F2FB6012E
:1032B000892F0E946E15D62EC72EB82ED0E0CE15BF
:1032C00050F081E09BE39F1508F480E0CDB7DEB7B6
:1032D000E9E00C940B30FE01E854FE4F8081F801C8
:1032E0009181892331F02B2D4D2D6C2DCE010E9423
:1032F000B2152196E4CFB0E0A0E0E1E8F9E10C944A
:10330000F12F8C01FC01E854FE4F8081682359F1B4
:10331000D0904003D0914103C0913F03EC2EF12C9B
:103320000E94CD12282FC7018C549F4F68E671E090
:103330000E94842F8E199F0997FD0396BC017595F5
:10334000679575956795822F83700E94562F682F19
:103350006C0F7D2D8D2F0E946E15462F282F672F05
:10336000C8010E94B215CDB7DEB7E7E00C940D306E
:10337000B0E0A0E0EEEBF9E10C94F12F7C01FC0150
:1033800080816CE00E94562F9CE0D92ED80E92814D
:1033900091112EC02091420330E1230F08F42FEF4A
:1033A0006091460370914703822F90E00E945F2F47
:1033B00020E0892F922F6AE070E00E94702F892B05
:1033C00069F40E94CD1290E06CE370E00E945F2FE0
:1033D000F7016181892F90E00E947B1981E0FBE376
:1033E000FD1508F480E0CDB7DEB7E7E00C940D30B2
:1033F0000D2DFCE3FD1508F40CE3C82FD0E010E020
:10340000C017D1075CF7F7016181CE010E947B19DB
:103410002196F6CF1F93CF93DF93EC01FC01E85484
:10342000FE4F80816823C1F00E94CD12182F0E94A8
:10343000CD1290E09695982F8827979587957FE7EE
:10344000790F612F809141030E946E15462F282F1E
:10345000672FCE010E94B215DF91CF911F91089581
:10346000B0E0A0E0E6E3FAE10C94F12F7C01FC016E
:10347000C281C1112AC02091420330E1230F08F418
:103480002FEF6091460370914703822F90E00E94D6
:103490005F2F20E0892F922F65E070E00E94702F4F
:1034A000892B69F40E94CD1290E06CE370E00E94D9
:1034B0005F2FF7016181892F90E00E940A1A8C2FFB
:1034C000CDB7DEB7E7E00C940D3080816CE00E9450
:1034D000562F9CE0D92ED80E0D2DFCE3FD1508F4D7
:1034E0000CE3C82FD0E010E0C017D10734F0C1E0E2
:1034F000FBE3FD1520F7C0E0E2CFF7016181CE01CB
:103500000E940A1A2196F0CFB0E0A0E0EAE8FAE1C2
:103510000C94EF2F8C01FC0180816CE00E94562FEF
:10352000C82F9CE0F92EF80EEF2CFCE3FF1510F4E9
:103530008CE3E82EC0904003D0904103D0913F032C
:103540008091420386958695869560914603709199
:10355000470390E00E945F2F892F0E94DD12805860
:1035600087FD8195880F90E06CE070E00E945F2FEE
:103570006D2F690F7C2D8D2D0E949C12D62EC72E8B
:10358000B82ED0E0CE1550F081E09BE39F1508F4F3
:1035900080E0CDB7DEB7E9E00C940B30FE01E854D3
:1035A000FE4F8081F8019181892331F02B2D4D2D23
:1035B0006C2DCE010E94B2152196E4CFE0912D0230
:1035C000F0912E0209950895CF92DF92FF920F930A
:1035D0001F93CF93DF93CDB7DEB728970FB6F8943C
:1035E000DEBF0FBECDBF182F062FF42E0E94F10EA6
:1035F000882309F454C010922603109227031092D6
:10360000280310922903FF2009F457C0AE014F5F31
:103610005F4F602F812F0E948A15F82E0F2D10E02A
:103620008091F902800F912F911D09976CF188E02C
:1036300090E06C01C01AD10AB80166507D4FA60116
:103640008AEF92E00E942A30B8016E5F7C4FA6019B
:1036500082E093E00E942A30A601440F551FB80172
:10366000660F771F6E5E7C4F82E193E00E942A30E6
:10367000B801665F7C4FA6018AE093E00E942A3081
:1036800088E08F198093F9021091F902DE011196FA
:1036900040E0842F810FF41212C08093F902289623
:1036A0000FB6F894DEBF0FBECDBFDF91CF911F9153
:1036B0000F91FF90DF90CF900895F12CAFCF5D91E7
:1036C000252F30E090E0BC0167507D4FF901EE0FEF
:1036D000FF1FE05CFE4F0081FB010183220F331FBF
:1036E000F901EF5BFE4F2081FB012187518B880F91
:1036F000991FFC01E750FD4F128E118E4F5FC9CF0D
:1037000081E008950E94801B089581E008950E9441
:10371000851B0895FC0180816CE00E94562F682F64
:103720008D3308F06CE38C500E94871B0895A4E051
:10373000B0E0EDE9FBE10C94E62F6091220370917B
:10374000230380912403909125030E942D286B016F
:103750007C010E9412281B012C012092220330922E
:1037600023034092240350922503809126039091D5
:103770002703A0912803B09129038C0D9D1DAE1D38
:10378000BF1D8093260390932703A0932803B09333
:1037900029036091F902E9EFF2E0762E70E08824C7
:1037A0008A94982CA12CB12C8C189D08AE08BF08C7
:1037B000671321C07092F902712C81349747AB4195
:1037C000B10548F480913E03982F9370792E19F03B
:1037D000782E769476948091F6018130B1F1882329
:1037E000E9F0823009F453C2833009F45BC22496B5
:1037F000E2E10C940230418D528D8A0130E020E0EC
:1038000080169106A206B30620F47A947F5F329662
:10381000CFCF4C0D5D1D528F418FF8CF1092F70125
:103820002092460330924703409248035092490346
:1038300089E2E9EFF2E0AAE4B3E001900D928A9503
:10384000E1F781E08093F601D2CF8091FA017812FE
:1038500024C090913E0393702091FB0130E081E001
:103860009217130609F480E081708093F90180912A
:1038700043039091F801981739F08093F80140E0E4
:1038800060E080E00E94DE1A2EE1271588F0E72D27
:10389000F0E0ED56FF4C0C94D92F81E0E5CF8091FC
:1038A000F901882359F040E060E080E00E94DE1AD0
:1038B00080E004C087EF91E00E94FC179091F7012F
:1038C0009F5F9093F7018111DEC182E08093F60142
:1038D0008091F9018111D7C1772009F4E1C10E94DB
:1038E000821B87EF91E00E948A1B81CF87EF91E0D6
:1038F0000E943618E3CF87EF91E00E948218DECF56
:1039000087EF91E00E94D018D9CF87EF91E00E9415
:103910002319D4CF87EF91E00E94F116CFCF87EF24
:1039200091E00E94F616CACF87EF91E00E949016B0
:10393000C5CF87EF91E00E949516C0CF87EF91E049
:103940000E942416BBCF87EF91E00E942916B6CFC4
:1039500087EF91E00E94FB16B1CF87EF91E00E94C4
:103960000017ACCF87EF91E00E940517A7CF87EF34
:1039700091E00E940A17A2CF87EF91E00E942E16D5
:103980009DCF87EF91E00E949A1698CF87EF91E044
:103990000E949F1693CF87EF91E00E9433168ECF3F
:1039A00087EF91E00E94711789CF87EF91E00E9425
:1039B000761784CF87EF91E00E94B8197FCF87EF09
:1039C00091E00E94301A7ACF87EF91E00E94841A2A
:1039D00075CF87EF91E00E940F1770CF87EF91E0CE
:1039E0000E9414176BCF8091F7018F5F6CE00E94EB
:1039F000562F182F4091460350914703609148037A
:103A0000709149038091F4029091F502A091F60221
:103A1000B091F70284179507A607B70708F057C0BB
:103A20000E94CD1290E06CE370E00E945F2F9983BA
:103A30001A82E981FA81E854FE4F80819091F80161
:103A4000892309F444C00E94CD1220E040E060E0E8
:103A500081FD15C00E94CD12082F0E94CD1290E06A
:103A60009695982F8827979587957FE7790F602FF0
:103A7000809141030E946E15462F282F672F898160
:103A80009A810E94B2156091420320E1620F08F40E
:103A90006FEF70E024E0769567952A95E1F784EF63
:103AA00091E00E94702F8091460390914703A0916E
:103AB0004803B0914903860F971FA11DB11D809344
:103AC000F4029093F502A093F602B093F70281E01E
:103AD0001C3308F4F3CEECCE8091F901882329F051
:103AE00040E060E080E00E94DE1A8091F7018F5F85
:103AF0006CE00E94562F282E4091460350914703B8
:103B000060914803709149038091F0029091F10215
:103B1000A091F202B091F30284179507A607B707A8
:103B200008F08AC060913F03709140038091410387
:103B30000E946E15662E572E482E00ED12E080E092
:103B400091E09A83898390E4892E91E0992EC9802F
:103B5000DA8056017801312CF50181915F0190E006
:103B6000F7012081222309F46DC0242D462D652DF7
:103B70000E94B215F6018785242D462D652D90E013
:103B80000E94B215F701818181937F013394F1E0A6
:103B9000CF1AD10827E03212DFCFE981FA8187817D
:103BA00090E0F8012781222309F457C0242D462DE7
:103BB000652D0E94B215E981FA818085242D462D5C
:103BC000652D90E00E94B2150E94CD12837091E0A5
:103BD00009F090E0F8019783085F1F4F29813A812F
:103BE000205F3F4F3A8329838216930609F0AFCFB7
:103BF0006091420320E1620F08F46FEF70E084E00F
:103C0000769567958A95E1F788EB9BE00E94702F87
:103C10008091460390914703A0914803B0914903D6
:103C2000860F971FA11DB11D8093F0029093F102A2
:103C3000A093F202B093F30281E03BE3321508F067
:103C40003DCE36CE20E040E060E00E94B215F601A5
:103C5000878520E040E060E092CF20E040E060E037
:103C60000E94B215E981FA81808520E040E060E0A1
:103C7000A8CF87EF91E00E94F21720CE87EF91E066
:103C80000E94F7171BCE772009F4B1CD28CE709291
:103C9000FA0180913E0383708093FB010E94AC1572
:103CA00083E0D0CD8091F80281110E94631560916C
:103CB00046037091470380914803909149030E9405
:103CC0002D28603171058105910508F490CD109281
:103CD000F6018DCDE0912902F0912A02099510920A
:103CE0004A038FEF9FEF9093640380936303909355
:103CF00066038093650390936803809367039093B2
:103D00006A038093690390936C0380936B03909391
:103D10006E0380936D039093700380936F03909371
:103D20007203809371031092F902909313038093AE
:103D300012039093150380931403909317038093B9
:103D40001603909319038093180390931B03809399
:103D50001A0390931D0380931C0390931F03809379
:103D60001E0390932103809320030E94FB0D811179
:103D700004C00E949D0E0E94741581E08093F80299
:103D800048E050E068E170E08EE393E00E94333059
:103D90001092F80280913E038C7F11F40E947415FA
:103DA00008950895EEE3F3E0908121E09227908357
:103DB0001092F6010E948914089580E00E94D21E9C
:103DC000089581E00E94D21E089580913E03837081
:103DD00011F41092F60180913E038C7F81608093F4
:103DE0003E03089580913E03837011F01092F60116
:103DF00080913E038C7F80933E03089580913E0323
:103E00008370089590913E03937051F0811109C021
:103E1000946090933E031092F601862F0E948914BD
:103E200008958F3110F09867F4CF282F220F220FBA
:103E3000922BEFCF60E00E94021F089561E00E9484
:103E4000021F089580913E03869586950895682FF8
:103E500090913E039695969581E0890F8F3108F0F9
:103E600081E00E94021F089581E00E94271F0895AB
:103E7000682F90913E03969596958FEF890F09F4E0
:103E80008EE10E94021F089581E00E94381F08956C
:103E900090913E03937061F080933F0360934003E1
:103EA000413A08F040EA40934103822F0E9489146E
:103EB000089520E00E94481F089580913F030895CF
:103EC000809140030895809141030895AEE3B3E0EB
:103ED0001196EC911197F0E0282F13964C911397BF
:103EE00012966C91CF0102960E94481F089581E0BE
:103EF0000E94661F0895EEE3F3E09181282F43812D
:103F00006281E92FE250FF0BCF010E94481F089504
:103F100081E00E947B1F0895EEE3F3E0628122E0DE
:103F2000620F08F46FEF9181282F4381892F90E071
:103F30000E94481F089581E00E948C1F0895EEE3BF
:103F4000F3E0628122E0621B08F460E09181282F97
:103F50004381892F90E00E94481F089581E00E94CC
:103F60009F1F0895EEE3F3E0438122E0420F08F43F
:103F70004FEF9181282F6281892F90E00E94481F86
:103F8000089581E00E94B21F0895EEE3F3E04381BB
:103F900022E0421B08F440E09181282F6281892FA2
:103FA00090E00E94481F089581E00E94C51F089577
:103FB0008093420380E00E94891408958091420317
:103FC0000895EEE3F3E0248132E0230F08F42FEFAD
:103FD00024830E948914089581E00E94E11F0895BE
:103FE000EEE3F3E0248132E0231B08F420E0248395
:103FF0000E948914089581E00E94F01F0895089599
:10400000362F63E070E00E945F2FDC01AD58BC4F9B
:1040100011963C9311974C93FD0122830895E3E799
:10402000F3E0818360834283339694E0E732F907BB
:10403000C1F708956CE370E083E793E00E94842069
:104040000895FA01811101C0FB01099508951F939C
:10405000CF93DF93EC01FB011581111110C00E9479
:10406000FA0C8272FE01E052F847E531F10508F0E2
:1040700049C0EE54FF4C0C94D92F0E94E11E812FB1
:10408000DF91CF911F91089544E45FE164E37FE104
:104090000E942120F4CF44E35FE164E47FE1F8CFA4
:1040A00048E85FE167E77FE1F3CF47E75FE168E872
:1040B0007FE1EECF4EEA5FE16BE97FE1E9CF4BE9CB
:1040C0005FE16EEA7FE1E4CF44ED5FE161EC7FE127
:1040D000DFCF41EC5FE164ED7FE1DACF4BEF5FE1F1
:1040E0006CEE7FE1D5CF4CEE5FE16BEF7FE1D0CF9F
:1040F00081E00E941E1FC3CF85E0FBCF8DE0F9CF8A
:1041000082E1F7CF11E0BBCF9C01CB01529A4BB1BA
:104110004B7FEBB1E460FFB7F89463E070E00E947E
:104120005F2F820F931F8217930741F4FFBF8FE524
:1041300094E00197F1F700C000000895D9015D9166
:104140009D0168E0EBB9000000C057FF4BB9550F67
:10415000000000C000C000C04BB900C06A9591F7D4
:10416000E2CF85E290E00E944330833289F486E218
:1041700090E00E944330883059F487E290E00E943A
:10418000433091E0833209F090E0892F81700895E7
:1041900080E0FCCFCF93DF93D82FCFEF8111C3E224
:1041A0006C2F85E290E00E9461306FEFD11168E0E2
:1041B00086E290E00E9461306C2F87E290E00E94DE
:1041C0006130DF91CF910895089588E290E00E94D8
:1041D0004330682F70E090E080E008950895CF9319
:1041E000C62F0E94EE206C2F88E290E00E94613082
:1041F000CF91089580E00E94CA2060E070E0CB017A
:104200000E94EF200E9478240E94472581E00E94AE
:10421000CA2008950E94E4200E94E5200E94EE201A
:104220000E94B120811102C00E94FA2008950E94CC
:10423000DD1E08959C01FB018581882351F0A901B1
:1042400057574038510530F4822F0E94572580E09F
:10425000089581E008952FEFFC012083089580E008
:104260000895CF93DF93EC0188818230F1F028F438
:10427000813071F0DF91CF9108958330E9F084307F
:10428000C9F70E945D1F89830E94601F8A83F2CF55
:104290000E94631F90E06FEF70E00E945F2F60EA62
:1042A00070E00E94702F6983E5CF0E94FE1E81118D
:1042B0000E94221F8983DECF0E94DE1FFBCFCF9397
:1042C000DF93EC018881823019F128F4813071F09C
:1042D000DF91CF910895833039F18430C9F70E947E
:1042E000631F9981482F6A81892F0EC0898190E0D0
:1042F00060EA70E00E945F2FD92F0E94601FC82FD4
:104300000E945D1F4D2F6C2F90E00E94591FE0CF3F
:104310008981811103C00E94F21EDACF0E94E51E3E
:1043200089810E941A1FD4CF89810E94D81FD0CFC3
:10433000FC019C012E5F3F4F9081983041F09930F5
:1043400051F0973059F4C9010E945F210895C901C5
:104350000E94312108950E94711508958FEF808386
:104360000895FC012181233019F40E9498210895B9
:104370000E942B210895B0E0A0E0E1ECF1E20C9462
:10438000F02FEC01C62E0E942F21811110C0E88170
:10439000E150E331B8F4F0E0E953FF4C0C94D92F2D
:1043A00019828CE08A836C2DCE010E94D928CDB76A
:1043B000DEB7E8E00C940C3089818230C1F028F43B
:1043C000813061F08FEF8883EECF833099F08430B5
:1043D000C9F71A821B821C821D82E5CF0E94122817
:1043E0000E94DF2F6A837B838C839D83DCCF0E94B6
:1043F000E520F6CF8A81082F10E07E019EE0D92EBD
:10440000D80E0430110578F6802F0E94F402F701CF
:10441000938384830F5F1F4FF2E0EF0EF11CD012E5
:10442000F0CFC1CF8981823031F0853059F68A8151
:104430000E941721B8CF6A817B818C819D810E9467
:10444000DF2F0E94EF20AFCF4B816A8189810E94CC
:104450003A249827892798279D838C83A4CF2C8181
:104460003D813227232732274B816A8189810E942F
:104470005C2499CF0E94782496CF6C2DCE010E94A7
:10448000B12191CF0E94F82489838DCF0E94FA2414
:104490009827892798279A83898385CF6B8170E035
:1044A00089819A81AE014C5F5F4F982789279827B1
:1044B0000E94FD2478CF6B8170E089819A81AE01E2
:1044C0004C5F5F4F9827892798270E9422256BCF42
:1044D0000E94472568CF0E942324D6CF6B8170E0CD
:1044E00089819A81AE014C5F5F4F98278927982771
:1044F0000E94A42458CF6B8170E089819A81AE011B
:104500004C5F5F4F9827892798270E94C8244BCF7C
:10451000CF93DF93EC01FB018581882309F4D2C09E
:104520009E0130572332310508F0B2C00E94110EAF
:1045300090933D0380933C03FE01E150F047E2324B
:10454000F10520F4E652FF4C0C94D92F80913C03E6
:10455000816080933C0393C080913D038860809389
:104560003D038DC080913C038260F3CF80913C037A
:104570008460EFCF80913C038860EBCF80913D0356
:104580008160EDCF80913D038260E9CF80913C0353
:104590008061DFCF80913C038062DBCF80913C0360
:1045A0008064D7CF0E944A0880913C038068D1CFB5
:1045B00080913C038C60CDCF80913D038360CFCF51
:1045C00080913C038E7FC5CF80913D03877FC7CF0D
:1045D00080913C038D7FBDCF80913C038B7FB9CF11
:1045E00080913C03877FB5CF80913D038E7FB7CF0D
:1045F00080913D038D7FB3CF80913C038F7EA9CF07
:1046000080913C038F7DA5CF80913C038F7BA1CF10
:104610000E944A0880913C038F779BCF80913C0396
:10462000837F97CF80913D038C7F99CF80913C030E
:1046300082FB992790F921E0922790FB82F990FB69
:1046400083F987CF80913D03982F909591708E7F4D
:10465000892B90FB81F983CF90913C03892F8F7B2D
:1046600096FF806476CF0E944A0890913C03892F80
:1046700097FB87F980586DCF81E00E94A00E809152
:104680003C0390913D030E94160E0E944A0880E070
:10469000DF91CF91089580E0F0CF90913C03892F76
:1046A0008F7E94FF806155CF90913C03892F8E7F40
:1046B00090FF81604ECF90913D03892F877F93FFBC
:1046C00088604DCF81E0E4CFB0E0A0E0EAE6F3E21D
:1046D0000C94F12FE82FF0E0EC58FC4FD490282FE9
:1046E00026952695269530E0F901EC5EFB4F049166
:1046F000877010E0082E02C0159507950A94E2F71E
:1047000001701127F901EC5FFB4FE490F12C082EAA
:1047100002C0F594E7940A94E2F791E0E922FF24BD
:10472000F901EC50FC4FC491D0E002C0D595C7957B
:104730008A95E2F7C170DD270115110519F081EEA8
:104740000E94C905E114F10419F086EE0E94C90522
:104750008D2D0E942406E114F10419F086EE0E94CA
:10476000F3050115110519F081EE0E94F305CD2B1B
:1047700019F08CE20E942406CDB7DEB7E7E00C9476
:104780000D30EF92FF921F93CF93DF93EC01162F22
:104790008881882309F451C0813009F04BC0898198
:1047A000813099F47E0122E0E20EF11C8A810E94A0
:1047B0002406E7012196812F815050F3EFE9FFE0B5
:1047C0003197F1F700C00000F7CF823041F47E014D
:1047D00082E0E80EF11C8A810E94C905EACF83308D
:1047E00041F47E01E2E0EE0EF11C8A810E94F305A5
:1047F000E0CF843011F02196DDCF2A81229690E01F
:1048000080E0FE0131962053330B2A30310548F009
:10481000019780F2EFE9FFE03197F1F700C0000067
:10482000F7CF6AE070E00E945F2F820F931F29810B
:10483000EF01E7CF0E946423BDCFDF91CF911F919D
:10484000FF90EF90089584E0089570E095E0660F82
:10485000771F9A95E1F750E0440F551F640F751FBD
:1048600090E09695982F882797958795860F971FA4
:10487000899608950F931F93CF93DF938430C8F4E4
:104880006430B8F44031A8F40E9425248C010E94C1
:104890004330C82FD0E0DC2FCC27C80101960E94FE
:1048A00043309E01282BC901DF91CF911F910F91B9
:1048B000089590E080E0F8CF0F931F93CF93DF939C
:1048C000122F032F843078F4643068F4403158F4A8
:1048D0000E942524EC01602F0E946130612FCE01DF
:1048E00001960E946130DF91CF911F910F91089541
:1048F0000F931F93CF93DF93D0E0C0E010E019C077
:104900000E943B0421E030E08C171D0639F034F0A2
:10491000402F612F8C2F0E943D049C01402F612F5E
:104920008C2F0E945C240F5F003151F71F5F143001
:1049300011F000E0E5CF2196C430D105F9F6DF9102
:10494000CF911F910F910895EF92FF920F931F93B4
:10495000CF93DF93EC018A017C01E60EF71ECE01B6
:104960008996CE15DF0529F4CDB7DEB7E6E00C94C5
:104970000E30C11522E0D20740F40E944330F80106
:1049800080830F5F1F4F2196EACFF8011082F9CF85
:10499000B0E0A0E0EEECF4E20C94F02F7C016A01B0
:1049A0008C01060F171FEC01CE018996C017D107A5
:1049B00029F4CDB7DEB7E8E00C940C30C11522E045
:1049C000D20740F4FE01EE19FF09EC0DFD1D6081D8
:1049D0000E9461302196E8CF843038F4643028F4A6
:1049E000403118F40E943A24089590E080E0089540
:1049F00080E1089587ED91E00895EF92FF920F9383
:104A00001F93CF93DF93EC018A017C01E60EF71E22
:104A1000CE01875D9D4FCE15DF0529F4CDB7DEB7FA
:104A2000E6E00C940E30C73D21E0D20740F40E942E
:104A30004330F80180830F5F1F4F2196E9CFF801C3
:104A40001082F9CFB0E0A0E0E8E2F5E20C94F02F9C
:104A50007C016A018C01060F171FEC01CE01875DF6
:104A60009D4FC017D10729F4CDB7DEB7E8E00C940D
:104A70000C30C73D21E0D20740F4FE01EE19FF09DA
:104A8000EC0DFD1D60810E9461302196E7CFCF9330
:104A9000DF93C9E2D2E060E0CE010E94613021964E
:104AA000C11584E0D807B9F7DF91CF910895A8E048
:104AB000B0E0EDE5F5E20C94EE2FF82E8FE08F15C7
:104AC00008F46EC08FEF93E00E944330811168C0FC
:104AD00009E212E0F11035C0FE0131966F0188E065
:104AE00011928A95E9F77801FFEFEF1AFF0AC801E2
:104AF0000E94433089831A82882309F451C081308F
:104B0000D1F4580182E0A80EB11CC7010E944330C5
:104B10008A83882309F444C09FEF980F9330F0F400
:104B2000780193E0E90EF11CC5010E9443308B83AC
:104B30008823B1F11C8260E0C6010E94C123870175
:104B4000D2CF011594E0190759F1C8010E944330F2
:104B5000811101C0FA940F5F1F4FBCCF75018430E3
:104B600051F702E010E07501EFEFEE1AFE0AC50101
:104B70000E944330F601E00FF11F8083882381F00B
:104B80008C3741F4E2E0F0E0EC0FFD1FE00FF11F85
:104B90001082D1CF0F5F1F4F57010730110519F752
:104BA0002896EAE00C940A30CF93DF93EB0186312C
:104BB0009C4711F50E94FA0C9D81992399F08A7AFD
:104BC00091E009F490E090932A03811109C089E2F1
:104BD0000E94D20C0E94530D80E0DF91CF91089586
:104BE00085E3F6CF80912A03811104C089E20E94F7
:104BF000DA0CF0CF85E3FBCF81E0EFCF0F931F936B
:104C0000CF93DF93C42FD22FFC0185818823C9F075
:104C100040932D030E94062890932C0380932B032E
:104C200080E28C0F883040F4C77081E001C0880FAB
:104C3000CA95EAF70E942D06DF91CF911F910F913F
:104C4000089510912D03141332C080912B0390917D
:104C50002C030E941E28883C910548F5C0E2CD0F28
:104C60001D17B9F080E2810F883040F4177081E0A1
:104C700001C0880F1A95EAF70E943406C83048F43C
:104C800081E09D2F977001C0880F9A95EAF70E94E6
:104C90002D06802F0E942406C83070F6D77081E060
:104CA00001C0880FDA95EAF70E943406C5CF80E28A
:104CB0008C0F883008F6C77081E001C0880FCA9554
:104CC000EAF7F2CF0F93DB0188519C4787309105BB
:104CD000A0F5FC01E450FF4C0C94D92F06E221EE24
:104CE00041EE6AE17CE7CD010E94FE2580E00F9154
:104CF000089507E225EE45EE6BE17CE7F4CF06E28E
:104D000021EE40EE68E17CE7EECF07E225EE44EECF
:104D100069E17CE7E8CF06E221EE42EE6CE17CE758
:104D2000E2CF07E225EE46EE6DE17CE7DCCF08E25C
:104D300021E045EE6EE17CE7D6CF15968C91882375
:104D400019F010922D03D3CF81E0D1CF1F93CF93D1
:104D5000DF9387372CE7920759F0C1E088379C47EB
:104D6000E1F4FB01C581CC2371F10E94E92606C064
:104D7000FB01C581CC23B1F00E94E6260E94C20847
:104D80000E94EC26D82F0E94E926C82F0E94E62612
:104D90004D2F6C2F0E94F509C0E08C2FDF91CF9131
:104DA0001F9108950E94E6260E94CE080E94EC26DC
:104DB000182F0E94E926D82F0E94E626412F6D2F3A
:104DC0000E94F509EACF0E94E926EECF8091000209
:104DD00008958091FF0108958091FE0108959093B8
:104DE000330280933202089590932F0380932E0311
:104DF0000895E0912E03F0912F03309729F0019050
:104E0000F081E02D0995089580E00895E0912E034A
:104E1000F0912F03309721F00280F381E02D099566
:104E200008959C012E5F3F4FAC01485F5F4F80E0CB
:104E30002417350709F40895F90191919F019923E9
:104E4000B9F38F5FF5CF662349F0FC0132960896DF
:104E50002191261729F0E817F907D1F780E0089586
:104E600081E008959C01FC0132969FEF80E0419122
:104E7000461751F09F3F19F4411101C0982F8F5FE1
:104E80008630A9F79F3F09F40895290F311D97FD3A
:104E90003A95F90162830895FC01329608962191B2
:104EA000261303C0DF0111971C92E817F907B9F721
:104EB00008950E94322708950E944C270895029673
:104EC00026E0FC0111922A95E9F7089508950E94C1
:104ED00066270895811106C081E0809330030E9407
:104EE0006727089582E0F9CF83E0809330030E9422
:104EF000672708950E946A27089581E08093300310
:104F00000E94672708950E947D27089508950895B7
:104F10000E9487270895089508950E94862708957E
:104F2000CF930E948B270E9456030E948C27C0E0DB
:104F30008C2F0E94F402892B31F4CF5FC430C1F76B
:104F400080E0CF91089581E0FCCF08951F921FB6B5
:104F50001F9211248F939F93AF93BF93809131033E
:104F6000811113C08091270490912804A0912904F5
:104F7000B0912A044196A11DB11D809327049093FE
:104F80002804A0932904B0932A04BF91AF919F9164
:104F90008F911F901FBE1F90189580912F04843011
:104FA00031F10E943F051092310388E190E020E446
:104FB0000FB6F894A895809360000FBE2093600010
:104FC00083B7817F846083BF83B7816083BF789418
:104FD000889583B78E7F83BF0FB6F894A89580918C
:104FE0006000886180936000109260000FBE089599
:104FF0000E944A080E944905089582E084BD93E01A
:1050000095BD9AEF97BD80936E0008952FB7F894E1
:105010008091270490912804A0912904B0912A043A
:105020002FBF08952FB7F89460912704709128043A
:105030008091290490912A042FBF08959C014FB7B5
:10504000F8948091270490912804A0912904B091AC
:105050002A044FBF821B930B0895CF92DF92EF92E9
:10506000FF922FB7F894C0902704D0902804E090C6
:105070002904F0902A042FBFA7019601261B370BA5
:10508000480B590BCA01B901FF90EF90DF90CF9008
:10509000089578941F921FB61F9211248F939F93A7
:1050A000AF93BF938091270490912804A091290485
:1050B000B0912A040196A11DB11D809327049093FD
:1050C0002804A0932904B0932A04BF91AF919F9123
:1050D0008F911F901FBE1F90189581E08093E00074
:1050E00080E28093D8001092C9008FE19EE401977E
:1050F000F1F700C0000087E090EBDC0180933804FA
:1051000090933904A0933A04B0933B0488E19CE067
:105110000FB6F894A895809360000FBE909360003E
:10512000FFCF88E19CE00FB6F894A89580936000CB
:105130000FBE90936000FFCF80913A0308950895C9
:1051400008959B01BA0190912F049430E9F48F7077
:105150008093E9009FEF8091E800915085FD06C0A3
:1051600085ED8A95F1F700009111F5CF8091E80067
:1051700085FF0AC050E040E0C9010E94BF2A80912B
:10518000E8008E778093E8000895CF93DF93EC01D9
:1051900048E050E0BC0181E00E94A12888E0FE01C7
:1051A000A2E3B3E001900D928A95E1F7DF91CF91F0
:1051B0000895603231F440E250E0BC0182E00E9488
:1051C000A12808950E947D27089560912B0481E015
:1051D000611101C080E00E947427089590912F040E
:1051E00081E0943009F080E060912B040E947A27DE
:1051F000089542E061EC81E00E94162C42E261ECED
:1052000082E00E94162C42E260EC83E00E94162CA1
:1052100090912F0481E0943009F080E060912B049C
:105220000E946A27089580913104833009F45FC099
:1052300030F48130C1F1823009F49CC008958A3085
:1052400009F488C08B3009F46DC0893009F04EC074
:1052500080913004813209F049C0809134049091EA
:105260003504892B09F042C08091E800877F809344
:10527000E8008091E80082FF35C08091F200823022
:1052800031F48091F100813011F0863021F4809169
:10529000F10080933A038091E8008B778093E800D7
:1052A0000E944A2C23C080913004813AF9F4809105
:1052B000E800877F8093E800809134049091350462
:1052C000892B61F468E082E393E070E00E945D2B3B
:1052D0008091E8008B778093E800089560E090E08B
:1052E00080E0F3CF80912F048111C3CF0895809186
:1052F0003004813AD9F78091340490913504892B98
:10530000A9F78091E800877F8093E8008091E8000A
:1053100080FFFCCF809109028093F1008091E8002A
:105320008E77BCCF80913004813201F780913404B4
:1053300090913504892BD1F68091E800877F809386
:10534000E8000E944A2C80913204809309020E9456
:105350004A08089580913004813241F68091E80036
:10536000877F8093E8000E944A2C809133048093C9
:105370003B03089580913004813A09F0B7CF8091C2
:10538000E800877F8093E8008091E80080FFFCCFF1
:1053900080913B03C1CF84B7877F84BF0FB6F89459
:1053A000A8958091600088618093600010926000F1
:1053B0000FBE80E890E00FB6F89480936100909360
:1053C00061000FBE0E94832708950E949A2C0E94BC
:1053D000ED2CE2EEF0E080818460808378940E947E
:1053E0003B2F089581E092E00E94F4260895809179
:1053F0002F04853031F480912F04853019F00E94FC
:10540000F82708950E94CD2780912D04882399F3D1
:105410000E949027882379F30E94A92A0E944A08B3
:10542000EACFA0E2B0E0E7E1FAE20C94F62F809137
:105430002F04843009F583E08093E9008091E8002F
:1054400082FF1AC08091E80090E085FF09C050E01B
:1054500040E060E270E0CE0101960E940E2B91E0E8
:105460008091E8008B778093E800992329F060E22F
:10547000CE0101960E94BB21A096E2E00C9412306E
:105480009A0140913604509137040E94482A0895A9
:10549000E92FFF27E330F105E9F060F4E130F10591
:1054A00009F448C0329709F44AC0F0E0E0E090E027
:1054B00080E025C0E132F10571F1E232F105A9F792
:1054C0006115710509F440C088EA94E06130710506
:1054D000B1F0EBCF992781309105B1F0009749F0F9
:1054E000029719F7E4E2F4E0E491F0E084E294E05A
:1054F00006C0E0E5F4E0E491F0E080E594E0D90155
:105500008D939C93CF010895EEE3F4E0E491F0E0F5
:105510008EE394E0F4CFE9E0F0E086E694E06115F4
:10552000710569F3E9E0F0E08FE794E0613071051F
:1055300031F3BBCFE2E1F0E086E994E0E0CFE2E4D2
:10554000F0E084E594E0DBCFE0E4F0E08AEC94E086
:10555000D6CF84E089BD86E089BD09B400FEFDCFC9
:105560008091D8008F7D8093D8008091E000826088
:105570008093E0008091E00081FDFCCF0895AF9220
:10558000BF92CF92DF92FF920F931F93CF93DF933F
:105590006C01EB018A010E94692CF82E811123C055
:1055A0000115110539F0F80180819181C81BD90BD3
:1055B000C80ED91EB12CA12C2097A9F08091E8002B
:1055C00085FD22C08091E8008E778093E800011568
:1055D0001105A1F0F80180819181A80EB91EB18258
:1055E000A08285E0F82E8F2DDF91CF911F910F9132
:1055F000FF90DF90CF90BF90AF9008950E94692CEC
:105600008823D1F2F82EEFCFF60181916F018093BC
:10561000F1002197FFEFAF1ABF0ACECFAF92BF9232
:10562000CF92DF92FF920F931F93CF93DF936C0182
:10563000EB018A010E94692CF82E811123C001150B
:10564000110539F0F80180819181C81BD90BC80E72
:10565000D91EB12CA12C2097A9F08091E80085FDDE
:1056600022C08091E8008B778093E8000115110536
:10567000A1F0F80180819181A80EB91EB182A082AB
:1056800085E0F82E8F2DDF91CF911F910F91FF9024
:10569000DF90CF90BF90AF9008950E94692C88232F
:1056A000D1F2F82EEFCF8091F100F60181936F01D6
:1056B0002197FFEFAF1ABF0ACECFFC0180913604CD
:1056C0009091370486179707A0F06115710529F4AA
:1056D0009091E8009E779093E80090E06115710545
:1056E00051F4911108C08091E80082FF32C080E03F
:1056F0000895BC01F2CF80912F048823B1F1853049
:10570000B1F18091E80083FD2EC08091E80082FD18
:10571000EACF8091E80080FFE1CF2091F20030E0F5
:105720006115710519F02830310558F091E02830E5
:10573000310509F090E02091E8002E772093E800F1
:10574000CDCF81918093F100615071092F5F3F4F60
:10575000E7CF80912F04882341F0853041F080917C
:10576000E80083FFC0CF81E0089582E0089583E0E0
:105770000895FC01809136049091370486179707AD
:10578000A0F06115710529F48091E8008E7780936F
:10579000E80090E06115710551F4911108C0809105
:1057A000E80082FF33C080E00895BC01F2CF809111
:1057B0002F048823B9F18530B9F18091E80083FD89
:1057C0002FC08091E80082FDEACF8091E80080FF41
:1057D000E1CF2091F20030E06115710519F0283019
:1057E000310558F091E02830310509F090E08091C2
:1057F000E8008E778093E800CDCF84918093F1000C
:105800003196615071092F5F3F4FE6CF80912F0491
:10581000882341F0853041F08091E80083FFBFCFBD
:1058200081E0089582E0089583E00895982F9530EF
:1058300028F08F708093E90081E008959093E9004B
:10584000242F762F50E0981731F07091EC002091C2
:10585000ED005091F00021FD02C09F5FE8CF309134
:10586000EB003E7F3093EB003091ED003D7F3093B5
:10587000ED003091EB0031603093EB007093EC0061
:105880002093ED005093F0002091EE0027FDE5CF2E
:1058900080E008958091300487FF13C08091E80074
:1058A00082FF06C08091E8008B778093E80004C0F7
:1058B00080912F048111F2CF089580912F048823C5
:1058C000D9F38091E80080FFF8CF8091E8008E77CF
:1058D000ECCF2091E4003091E50095E6A9012091FC
:1058E000EC00822F817020FF06C08091E80080FFCD
:1058F00006C080E008952091E80022FD1AC0809142
:105900002F04882389F0853089F08091EB0085FD94
:105910000FC02091E4003091E50042175307F9F2DF
:105920009150E1F684E0089582E0089583E00895BF
:1059300081E008950E94F82C0E94FB2CE0EEF0E03C
:10594000808181608083E8EDF0E080818F778083C3
:1059500019BCE3E6F0E080818160808310922E0420
:1059600008950E94F82C0E94FB2C8091D8008F771C
:105970008093D8008091D80080688093D80080916F
:10598000D8008F7D8093D80084E089BD86E089BDF2
:1059900009B400FEFDCF10922F0410922B04109238
:1059A0002D0410922C0442E060E080E00E94162C4E
:1059B0008091E1008E7F8093E1008091E200816020
:1059C0008093E2008091E20088608093E200809101
:1059D000E0008E7F8093E0000895E3E6F0E08081B0
:1059E0008E7F808381E080932E040E94B12C0895E5
:1059F0001092E20008951092E10008951F920F9214
:105A00000FB60F9211242F933F934F935F936F9391
:105A10007F938F939F93AF93BF93EF93FF93809167
:105A2000E10082FF0BC08091E20082FF07C08091FD
:105A3000E1008B7F8093E1000E943A2F8091E1008A
:105A400080FF19C08091E20080FF15C08091E200C4
:105A50008E7F8093E2008091E20080618093E2007B
:105A60008091D80080628093D80019BC85E0809333
:105A70002F040E94E5288091E10084FF2BC08091D3
:105A8000E20084FF27C084E089BD86E089BD89B536
:105A9000982F917080FFFBCF8091D8008F7D8093ED
:105AA000D8008091E1008F7E8093E1008091E20038
:105AB0008F7E8093E2008091E20081608093E2001B
:105AC00080912B04882309F443C084E080932F0441
:105AD0000E94EE288091E10083FF29C08091E200BE
