:100000000C943D020C9475020C9475020C947502CC
:100010000C9475020C9475020C9475020C94750284
:100020000C9475020C9475020C9475020C94312F8B
:100030000C94E22F0C94D9290C9475020C9475023F
:100040000C9475020C9475020C9475020C947C2A25
:100050000C9475020C9475020C9475020C94750244
:100060000C9475020C9475020C9475020C94750234
:100070000C947502363020003539200035382000C8
:100080003537200035362000353520003534200046
:100090003533200035322000353120003530200046
:1000A0003439200034382000343720003436200022
:1000B0003435200034342000343320003432200022
:1000C0003431200034302000333920003338200010
:1000D00033372000333620003335200033342000FE
:1000E00033332000333220003331200033302000FE
:1000F00032392000323820003237200032362000DA
:1001000032352000323420003233200032322000D9
:1001100032312000323020003139200031382000C7
:1001200031372000313620003135200031342000B5
:1001300031332000313220003131200031302000B5
:100140003039200030382000303720003036200091
:100150003035200030342000303320003032200091
:1001600030312000407E417E427E437E447E457E8B
:10017000467E477E487E497E4A7E4B7E4C7E4D7E43
:100180004E7E00004F7E507E517E527E537E547EC6
:10019000557E567E577E587E597E5A7E5B7E5C7EAB
:1001A0005D7E00005E7E5F7E607E617E627E637E3D
:1001B000647E657E667E677E687E697E6A7E6B7E13
:1001C0006C7E00006D7E6E7E6F7E707E717E727EB4
:1001D000737E747E757E767E777E787E797E7A7E7B
:1001E0007B7E000000010101010101010101020209
:1001F00002020202020202030303030303030304D5
:10020000040404040404050505050506060606069F
:10021000070707070708080808090909090A0A0A59
:100220000B0B0B0C0C0C0D0D0D0E0E0E0F0F0F10FB
:100230001011111112121313141415151616171785
:10024000181819191A1A1B1B1C1D1D1E1E1F2020F1
:10025000212222232424252626272829292A2B2C3B
:100260002D2D2E2F30313232333435363738393A5E
:100270003B3C3D3E3F404142434445464748494A56
:100280004C4D4E4F50515354555658595A5B5D5E24
:100290005F616264656668696B6C6D6F70727375BF
:1002A00077787A7B7D7E8082838587888A8C8E8F23
:1002B00091939596989A9C9EA0A2A3A5A7A9ABAD51
:1002C000AFB1B3B5B7BABCBEC0C2C4C6C9CBCDCF3F
:1002D000D1D4D6D8DBDDDFE2E4E7E9EBEEF0F3F5ED
:1002E000F8FAFDFF00000000000000002A2B2800A3
:1002F00000000000000000000000000000000029D5
:10030000000000002C1E3420212224342627252E14
:10031000362D3738271E1F2021222324252633334C
:10032000362E37381F0405060708090A0B0C0D0E78
:100330000F101112131415161718191A1B1C1D2F44
:100340003130232D350405060708090A0B0C0D0E64
:100350000F101112131415161718191A1B1C1D2F24
:100360003130354C000000000000000000000000AB
:10037000000000000000000000000000000000007D
:1003800000000000000000007E0F00D4FFFFFFC748
:100390000000007818034F006E00740068006500CC
:1003A000310035006D0069006E0069000000100327
:1003B0006800610079006100730068006900000056
:1003C0000403090409024200020100A0FA09040022
:1003D0000001030101000921110100012240000771
:1003E000058103080001090401000203000000095F
:1003F00021110100012222000705820320000107CC
:100400000503032000011201000200000008848897
:1004100097080001010200010660FF0961A10109BE
:1004200062150026FF0095207508810209631500FA
:1004300026FF00952075089102C005010906A1015B
:10044000050719E029E715002501950875018102C6
:100450009501750881010507190029FF150026FF80
:10046000009506750881000508190129059505758F
:10047000019102950175039101C011241FBECFEFB8
:10048000D4E0DEBFCDBF04B603FE18C080913804AF
:1004900090913904A0913A04B0913B048730904B7D
:1004A000A740B04B59F410923804109239041092BE
:1004B0003A0410923B04E0E0F8E3099512E0A0E072
:1004C000B1E0E8EFF6E602C005900D92A233B10765
:1004D000D9F724E0A2E3B2E001C01D92A833B2072D
:1004E000E1F70E94DC130C94B8320C940000F894ED
:1004F000E82FE295EF70F0E031A1282F2F7081E016
:1005000090E001C0880F2A95EAF7982F90959323E1
:1005100091A392A1892B82A378940895F894E82F4F
:10052000E295EF70F0E031A1282F2F7081E090E08C
:1005300001C0880F2A95EAF7382B31A392A1809544
:10054000892382A37894089508950E94A4020895AF
:1005500008950E94A8020895E82FF0E0EE0FFF1F13
:10056000E45CFD4F808191810895089580EA8A9529
:10057000F1F7089500C008950E94B6020895EF9221
:10058000FF920F931F93CF93DF9380E30E94770234
:1005900081E30E94770285E60E94770284E60E944A
:1005A0007702CDE0D2E085E1E82E82E0F82E8E01E0
:1005B000D8018D918D018F3F11F00E947702E016D6
:1005C000F106B1F789918F3F11F00E947702EC1686
:1005D000FD06C1F780E30E94770281E30E94770263
:1005E00085E60E94770284E60E94770288E0ECE3C9
:1005F000F2E0DF01982F1D929A95E9F7E4E3F2E02B
:10060000DF011D928A95E9F784E00E948E130E9413
:10061000A502CDB7DEB7E6E00C944132A8E0B0E029
:10062000E4E1F3E00C941B328E010F5F1F4F88E072
:10063000D8011D928A95E9F768015DE1A52E52E087
:10064000B52E712C65E1862E62E0962EF501619043
:100650005F01FFEF6F16A1F1862D0E948E020E94AE
:10066000BA02EDE0F2E021E030E0F12CE12C419122
:100670004F3F09F4B0C0A42FA295AF70B0E09096A0
:100680008C9190E04F7002C0959587954A95E2F75E
:1006900080FDA1C0C901E82AF92A220F331F8E1656
:1006A0009F0629F7862D0E94770261E0E114F1048C
:1006B00009F460E0872D0E94BC02D601ED92FC9205
:1006C0007394B2E0CB0ED11CE4E07E12BFCF9DE06C
:1006D000C92E92E0D92EF12CE12C88248394912C00
:1006E000BE2CD6018D916D018F3F09F447C00E9449
:1006F0008E020E94BA02C7010896A40102C0440FEC
:10070000551F8A95E2F7BA0160957095F8018DE161
:10071000482E82E0582EA12CD2017D902D0180819F
:100720009181BFEF7B1609F459C0272D22952F70B8
:1007300030E0D90190962C9130E0B72DBF707B2E20
:1007400002C035952795BA95E2F720FD47C0842B66
:10075000952B91838083AA24A394329621E242169A
:1007600022E05206C9F6F601319780818F3F11F0E1
:100770000E9477026A2D8B2D0E94BC028FEFE81A2F
:10078000F80AA8E0EA16F10409F0AACF48E050E020
:10079000B80184E392E00E945032FF24F394009762
:1007A00009F4F12C892B41F088E0F801A4E3B2E0D0
:1007B00001900D928A95E1F72F2D44E06CE372E0F1
:1007C00084E392E00E948F130E94A9028F2D289645
:1007D000E0E10C94373290E080E05DCF86239723F0
:1007E00091838083BACF80549E478C33910578F4EF
:1007F000FC01E654FD4CDB0115969C910C940C32E7
:10080000992329F060E080E691E00E94F32581E0E1
:1008100008959923E1F360E08CE591E00E94F325CF
:10082000F6CF9923A1F360E088E591E00E94F325DB
:10083000EECF992361F360E084E591E00E94F32517
:10084000E6CF992321F360E080E591E00E94F32553
:10085000DECF9923E1F260E08CE491E00E94F32581
:10086000D6CF9923A1F260E088E491E00E94F325BD
:10087000CECF992361F260E084E491E00E94F325F9
:10088000C6CF992321F260E080E491E00E94F32535
:10089000BECF992309F4BBCF60E08CE391E00E94C6
:1008A000F325B5CF992309F4B2CF60E088E391E056
:1008B0000E94F325ACCF992309F4A9CF60E084E32B
:1008C00091E00E94F325A3CF992309F4A0CF60E023
:1008D00080E391E00E94F3259ACF992309F497CF02
:1008E00060E08CE291E00E94F32591CF992309F416
:1008F0008ECF60E088E291E00E94F32588CF9923B3
:1009000009F485CF60E084E291E00E94F3257FCF77
:10091000992309F47CCF60E080E291E00E94F32506
:1009200076CF992309F473CF60E08CE191E00E94C7
:10093000F3256DCF992309F46ACF60E088E191E057
:100940000E94F32564CF992309F461CF60E084E12C
:1009500091E00E94F3255BCF992309F458CF60E022
:1009600080E191E00E94F32552CF992309F44FCF03
:1009700060E08CE091E00E94F32549CF992309F4CF
:1009800046CF60E088E091E00E94F32540CF9923B4
:1009900009F43DCF60E084E091E00E94F32537CF79
:1009A000992309F434CF60E080E091E00E94F325C0
:1009B0002ECF992309F42BCF60E08CEF90E00E94BA
:1009C000F32525CF992309F422CF60E088EF90E04A
:1009D0000E94F3251CCF992309F419CF60E084EF1E
:1009E00090E00E94F32513CF992309F410CF60E023
:1009F00080EF90E00E94F3250ACF992309F407CFF6
:100A000060E08CEE90E00E94F32501CF992309F479
:100A1000FECE60E088EE90E00E94F325F8CE9923A8
:100A200009F4F5CE60E084EE90E00E94F325EFCE6D
:100A3000992309F4ECCE60E080EE90E00E94F3256B
:100A4000E6CE992309F4E3CE60E08CED90E00E94BD
:100A5000F325DDCE992309F4DACE60E088ED90E04D
:100A60000E94F325D4CE992309F4D1CE60E084ED21
:100A700090E00E94F325CBCE992309F4C8CE60E024
:100A800080ED90E00E94F325C2CE992309F4BFCEF9
:100A900060E08CEC90E00E94F325B9CE992309F434
:100AA000B6CE60E088EC90E00E94F325B0CE9923AA
:100AB00009F4ADCE60E084EC90E00E94F325A7CE6F
:100AC000992309F4A4CE60E080EC90E00E94F32525
:100AD0009ECE992309F49BCE60E08CEB90E00E94BF
:100AE000F32595CE992309F492CE60E088EB90E04F
:100AF0000E94F3258CCE992309F489CE60E084EB23
:100B000090E00E94F32583CE992309F480CE60E023
:100B100080EB90E00E94F3257ACE992309F477CEFA
:100B200060E08CEA90E00E94F32571CE992309F4ED
:100B30006ECE60E088EA90E00E94F32568CE9923AB
:100B400009F465CE60E084EA90E00E94F3255FCE70
:100B5000992309F45CCE60E080EA90E00E94F325DE
:100B600056CE992309F453CE60E08CE990E00E94C0
:100B7000F3254DCE992309F44ACE60E088E990E050
:100B80000E94F32544CE992309F441CE60E084E924
:100B900090E00E94F3253BCE992309F438CE60E023
:100BA00080E990E00E94F32532CE992309F42FCEFC
:100BB00060E08CE890E00E94F32529CE992309F4A7
:100BC00026CE60E088E890E00E94F32520CE9923AD
:100BD00009F41DCE60E084E890E00E94F32517CE72
:100BE000992309F414CE60E080E890E00E94F32598
:100BF0000ECE992309F40BCE60E08CE790E00E94C2
:100C0000F32505CE992309F402CE60E088E790E051
:100C10000E94F325FCCD992309F4F9CD60E084E727
:100C200090E00E94F325F3CD81E00895811114C076
:100C3000643090F4403180F4E62FF0E084E0EE0F71
:100C4000FF1F8A95E1F7E40FF11DEE0FFF1FEC592E
:100C5000FE4F85919491089581E090E0089581E0A0
:100C600008950E942F06089581E008950E94F303DD
:100C7000089508950E9439060895A6E0B0E0E3E4DF
:100C8000F6E00C94283249835A839E8330914902BE
:100C900089819A8131111AC03E81332399F0222330
:100CA00089F00E944D0B182F682F89819A810E942C
:100CB000240B69817A81812F0E945E122696E3E0DF
:100CC0000C9444320E94380B182FF3CF0E944D0B26
:100CD00069817A81F1CFFC01262F408151816281A7
:100CE0007381848195810E943D060895CF93DF939F
:100CF000EC0161E00E946B06BE010E943106DF91AB
:100D0000CF910895CF93DF93EC0160E00E946B06D2
:100D1000BE010E943A06DF91CF91089508950E9486
:100D20001A0A0E948E062FEF84E39CE02150804037
:100D30009040E1F700C0000008950E948F060E94D5
:100D4000A02A08950E948F060E94C42A08950F9336
:100D50001F93CF93DF938C0161E00E946B06EC013F
:100D6000B8010E94EA22811106C080E0DF91CF9194
:100D70001F910F910895B801CE010E943606882375
:100D8000A1F3B801CE010E949528882371F3B80120
:100D9000CE010E945824882341F3B801CE010E945D
:100DA0000728882311F3B801CE010E94F721882378
:100DB000E1F2B801CE010E94D9288823B1F2F801EE
:100DC0008581882361F0C330FCE7DF07E9F058F440
:100DD000C115ECE7DE07A9F0C130DC47B9F0C80166
:100DE0000E943406C3CFCB358CE7D807A9F0CC35A9
:100DF000ECE7DE0771F0CA35DC4789F70E94BC0FCB
:100E0000EECF0E949D06B1CF0E94C40F0E94A206A1
:100E1000ACCF0E94B20FE3CF0E94C00FE0CF0E9480
:100E2000BB290E94671D0E943E0781E00E94A1200D
:100E300008950E94420780E00E94A1200E94C029DC
:100E40000895089581E008950895CF93DF93D82FF2
:100E50000E942207C82F882319F08D2F0E94240793
:100E60008C2FDF91CF9108950895CF93C82F0E94C2
:100E700021078C2F0E942507CF91089580E00E94C2
:100E8000350708950E942C290E9435070895CF93B5
:100E90000E942C29C82F809144028C1779F0C093AE
:100EA00044020E94452A6093450270934602809353
:100EB0004702909348028C2F0E943507CF910895E6
:100EC000ADE0B0E0E6E6F7E00C94293248875987B8
:100ED0006A877B878C879D8791110E94EA0E1F820B
:100EE00086E0FE013896DE01119601900D928A95FA
:100EF000E1F78D8181110DC029813A814B815C819F
:100F00006D817E818F810E94180E2D96E2E00C94F7
:100F10004532CE0101960E9476068111EDCFF5CFC4
:100F2000FC012481213021F4808191810E947A0B7F
:100F30000895CF93C82F8823B9F08CEF8C0F813A96
:100F4000A8F46C2F8091F4019091F5010E9456292C
:100F5000882329F08C2F0E94AA0E0E94230F8C2F29
:100F60000E94A20E0E94230FCF91089580E28C0F61
:100F70008830D0F7C77081E001C0880FCA95EAF7C2
:100F80000E94CD0EEFCF882341F09CEF980F913A4D
:100F900028F40E94AA0E0E94230F089590E2980F51
:100FA0009830D8F7877091E001C0990F8A95EAF7D9
:100FB000892F0E94D30EEFCF1F93CF93DF93182F6B
:100FC000EB010E949907209739F4812F0E94C307F3
:100FD000DF91CF911F9108958FE99FE00197F1F77D
:100FE00000C000002197EFCF70E060E0893311F47A
:100FF00060E570E00E94DC070895882321F00E94DC
:10100000CD0E0E94230F0895882321F00E94D30E55
:101010000E94230F0895B0E0A0E0E1E1F8E00C9415
:1010200022326C01D62FC72FFC0115810681029553
:101030000F700E94C30EE82E8823E9F0E12E1123E1
:10104000D1F08C2F807F803451F080E28D0F88307A
:10105000F8F0011104C08C2F807E8032C9F080919D
:101060003D0382FF15C082E00E94860F0E94C30EDE
:1010700091E0E82EE926BC2EB2949FE0B922FBE075
:10108000FB15B8F1EB2DF0E0EA50FD4C0C940C325E
:10109000E12CF1CF0C2F0F70C07F11F00295007F73
:1010A000112399F0002359F080E28D0F883010F061
:1010B000D11107C0802F0E94CD0E0E94230F8D2FCB
:1010C0005AC0802F0E94DD0EF8CF8D2F0E94C307DB
:1010D000002379F080E28D0F883010F0D11104C028
:1010E000802F0E94D30E03C0802F0E94E30E0E9427
:1010F000230FEB2DE850FF0B349720F40E942C298E
:101100000E943507EE2089F00E94BF0E80FD0DC0C1
:10111000F60115820E94B90E0E94920AC6010E9431
:10112000ED090E94B90E0E949E0ACDB7DEB7E9E034
:101130000C943E322C2F2F70F22EC07FC03219F04B
:10114000F29480EFF822DD2341F0D130D1F1112368
:1011500009F444C00023F1F0B2CF80913D0382FD39
:1011600015C0112359F0FF2029F08F2D0E94CD0EBC
:101170000E94230F80E00E949907BBCF80E00E946D
:10118000C307FF2009F4B5CF8F2DABCF112369F032
:10119000011104C08F2D0E94FD07ABCF013009F073
:1011A000A8CF8F2D0E94010FA4CF0111A2CF8F2DA8
:1011B0000E9404088F2D0E940D0F8F2D0E94F10EAA
:1011C00098CF112321F0063008F093CFE3CF0530FC
:1011D00008F08FCF8F2D0E9404088BCF0023D1F30E
:1011E000D93349F43FEF87EE93E03150804090408F
:1011F000E1F700C000008D2F0E94C3077ACF8C2F2B
:10120000837079F5111175CF4D2F42954695477032
:10121000440F440F8D2F8F70042E01C0880F0A9445
:10122000EAF72D2F2071D4FF07C02FE030E001C076
:10123000220F4A95EAF72095C695C695C370822B72
:10124000C23049F058F4C13019F00E946E0A51CFF3
:101250000E94680A4ECF0E94740A4BCF0E94650A12
:1012600048CF8695112311F08C2F8170882309F4C3
:1012700040CF4D2F429546954770440F440F8D2F18
:101280008F70042E01C0880F0A94EAF72D2F207169
:10129000D4FF07C02FE030E001C0220F4A95EAF7E3
:1012A0002095C695C695C370822BC23049F058F47C
:1012B000C13019F00E94BD0A1CCF0E94B70A19CF95
:1012C0000E94C30A16CF0E94800A13CFCF70112349
:1012D00029F08C2F0E94920A8D2F5DCF8D2F0E94B6
:1012E00004088C2F0E949E0A04CFD23F41F160F483
:1012F000D03FB9F0D13F81F0112309F446C001116C
:10130000DECE8C2F8F711FC0D33F01F1D43FA1F7E8
:1013100080913D0382FD24C08C2F8F71112311F326
:1013200012C0112341F0053008F0E3CE8C2F8F71ED
:101330000E94AB0ADECE063008F0DBCEF7CF8C2F52
:101340008F711111CFCF0E94920AD3CE112329F0B1
:101350008C2F8F710E94890ACCCE0E94850AC9CE3B
:10136000112349F0CF718C2F0E94920A63E08C2FD9
:101370000E94680FBECE81E00E94860F023008F402
:10138000B8CE82E00E94860FB4CE002359F0D93344
:1013900009F031CFEFEFF7EE23E0E150F0402040CD
:1013A000E1F727CF8C2F8F719DCF0F931F93CF9392
:1013B000DF93EC01688179818D810E94850B8C011E
:1013C0000E94C90A0E94640AB801CE010E940B085B
:1013D000DF91CF911F910F910895CF93DF93EC018F
:1013E0008C81882399F0CE010E94A706811111C03B
:1013F0000E94C30E882351F08D81882339F080919B
:101400003D0382FF03C082E00E94860FDF91CF91EF
:101410000895CE010E94D509CE010E948206F6CF22
:101420000E94EA0E0E94230F08950E94B20E0E94AD
:10143000100A08950E94DA0E0E94150A08959295E6
:101440009F70963091F058F4925F9F70923058F4EC
:10145000803F19F030F4883E30F481E008959A5FBF
:10146000F4CF843FD1F380E00895883EB0F3813F0C
:10147000D1F7F3CFFC012481222339F080819181BF
:101480000E947A0B0E941F0A089580E00895A6E04A
:10149000B0E0EDE4FAE00C9429322696E2E00C94F8
:1014A0004532A7E0B0E0E7E5FAE00C942932279650
:1014B000E2E00C94453208950E945B0A08950E9470
:1014C0005C0A80936302089508950E945F0A08955C
:1014D00090916302892B0E945F0A089590916302A4
:1014E00089230E945F0A08959091630289270E94D0
:1014F0005F0A08950E945B0A08950E947A0A08957F
:101500000E947D0A80936202089580E00E94800A12
:10151000089591E001C0990F8A95EAF7892F0E94FA
:10152000800A089521E030E001C0220F8A95EAF791
:1015300080916202822B0E94800A089521E030E0AF
:1015400001C0220F8A95EAF72095809162028223DA
:101550000E94800A089521E030E001C0220F8A95A0
:10156000EAF78091620282270E94800A0895909192
:101570006202892B0E94800A089590916202892359
:101580000E94800A08959091620289270E94800A31
:1015900008950895CF93DF93282FFA01862F87703F
:1015A000A1E001C0AA0F8A95EAF7CB0133E0969536
:1015B00087953A95E1F763E070E00E949231E80F79
:1015C000F91F50E040E0822F90E06191EF012197F8
:1015D0009C01042E02C0369527950A94E2F72170EB
:1015E000219526272A23262728834F5F5F4F4330E4
:1015F000510559F7DF91CF910895FB01A82FA770EE
:1016000023E0969587952A95E1F763E070E00E94C4
:101610009231E80FF91F50E040E080E0219130E086
:101620000A2E02C0369527950A94E2F721703327D7
:10163000042E01C0220F0A94EAF7822B4F5F5F4FFE
:101640004330510559F70895262F943080F48031A6
:1016500070F4692F70E094E0660F771F9A95E1F7B8
:10166000680F711D4AE452E0822F0E94CA0A089551
:10167000943088F4803178F4292F30E094E0220F00
:10168000331F9A95E1F76AE472E0820F932F911D60
:101690000E94FD0A089580E00895CF92DF92FF92A4
:1016A0000F931F93CF93DF936C010091620280919F
:1016B0006302082BC3E0D0E010E0FC2EC8010C2E22
:1016C00002C0959587950A94E2F780FD0CC021979A
:1016D000A0F7F12C8F2DDF91CF911F910F91FF90EB
:1016E000DF90CF900895B6018C2F0E946A12019767
:1016F00071F3F0CFCF93DF93EC010E944D0BBE014D
:101700000E946A12DF91CF9108951F93CF93DF93C8
:10171000EB0190914902992339F0CB010E947A0B99
:10172000DF91CF911F910895882369F0CB010E942A
:101730004D0B182F682FCE010E94240BBE01812F64
:101740000E946A12EDCFCB010E94380B182FF6CF02
:10175000E1E0F0E0DF0102C0AA0FBB1F6A95E2F7EB
:10176000BD01DF0102C0AA0FBB1F4A95E2F76A2B39
:1017700001C0EE0F2A95EAF7962F9823961302C020
:101780008E2B0895E0958E230895242F462F682FE1
:10179000809162020E94A80B0E94800A0895CF9354
:1017A000DF93C0916402809165028C1303C0DF91C6
:1017B000CF910895D0E0CE0167E070E00E949231B1
:1017C000FC01EA59FD4F20813181428153816481BE
:1017D000758186810E94510A2196C770E4CF2091BD
:1017E0009E0230919F024091A0025091A10260910F
:1017F000A2027091A3028091A4020E94510A08954E
:10180000CF93DF938091A402807F09F04FC0809135
:10181000A302882309F44AC0209164024091650222
:10182000A0919F02B0919E02C091A002D091A1020E
:101830004217E1F130E0C90167E070E00E949231A7
:101840008A599D4FFC018481882399F1C90167E081
:1018500070E00E949231FC01EA59FD4F81818A13A8
:1018600028C080818B1325C08581811122C082818F
:1018700093818C1B9D0B883C9105D8F48091A40228
:101880008F7080618093A402C90167E070E00E94BC
:101890009231FC01E459FD4F90819F7090619083DB
:1018A0008EE992E00E94ED090E94CF0BDF91CF916B
:1018B00008952F5F3F4F2770BBCFA82FB62F2091E1
:1018C000640240916502241302C080E0089530E074
:1018D000C90167E070E00E949231FC01EA59FD4FB6
:1018E0008181B81306C08081A81303C0858181114E
:1018F000EDCF2F5F3F4F2770E6CFA4E1B0E0E3E8E4
:10190000FCE00C941F328C0186E0F801DE011F968A
:1019100001900D928A95E1F7D80114968C91149755
:101920001596EC9015979EE9A92E92E0B92E90910C
:10193000A20291111FC08823D1F0EE20A9F0C801A6
:101940000E943A0AF82E882379F087E0F801D50141
:1019500001900D928A95E1F7C5010E9490070E94BF
:10196000000C0E94EF0B3DC0C8010E94ED09FF244E
:10197000F39437C0F801C080D18082809380F090CA
:10198000A3022091A0023091A102A401421B530B9B
:10199000FF2009F4F6C0483C510508F0A5C0882393
:1019A00001F190919F028091A402282F207F09F0DD
:1019B00067C09D111BC090919E029C1117C0E11041
:1019C00059C08F7080618093A4020E94EF0B8EE952
:1019D00092E00E94ED098091A402D80116968C93A2
:1019E000F12C8F2D6496ECE00C943B32E11042C058
:1019F0006D2D8C2D0E945D0CE82E882371F08EE9F0
:101A000092E00E94ED0987E0EEE9F2E0DF011D922D
:101A10008A95E9F70E94EF0BE3CFCF86D88A8F85AE
:101A200098890E947A0B292F22952F70243058F420
:101A30009F70223088F0992399F0F8019681907F69
:101A400079F4FE2CCECF2A5F2F70223068F0C801C7
:101A50000E94ED09EF2CF5CF992311F0882389F32B
:101A6000805E883070F3F3CF803F58F3815F83301E
:101A700070F7E7CF8091A40281608093A402B0CF79
:101A80009D1107C090919E029C1103C0EE2009F4A5
:101A90009CC0C8010E943A0A882309F465CFEE2051
:101AA00009F462CF8091A402803288F020919E02D6
:101AB00030919F02398728879B868A869091A2025F
:101AC0009C871D868E87CE0108960E94ED0987E0CF
:101AD000F801AEE9B2E001900D928A95E1F70E941B
:101AE000000C0E94EF0B43CF9091A402292F207F7E
:101AF00091F4682D9A8A898AA6017A899E2D0E947E
:101B0000470A8EE992E00E94ED0987E0F501119203
:101B10008A95E9F77FCF882309F463CF80919F02EC
:101B20008D1111C080919E028C110DC0E1100BC06F
:101B300016969C93C8010E94ED0987E0F501119269
:101B40008A95E9F74ECFC8010E943A0A882309F422
:101B50000BCFEE2009F408CF8091A402803208F464
:101B6000B6CF20919E0230919F023A8329839C82B6
:101B70008B829091A2029D831E828F83CE0101965B
:101B8000A4CF483C510508F045C0882309F4EFCEA6
:101B9000FE2CEE2009F4E8CE80919F028D112CC01E
:101BA00080919E028C1128C08091A40280FD1BC0F0
:101BB000982F907FC1F016968C931697903F39F02E
:101BC000982F907F905F8F70892B16968C93C80109
:101BD0000E94ED0987E0F801AEE9B2E001900D92B4
:101BE0008A95E1F7BECE87E0F801AEE9B2E0019058
:101BF0000D928A95E1F7F5CEC8010E943A0A81114B
:101C000066CF8091A40281608093A402C8010E94E3
:101C1000ED09E7CE682D9A8A898AA6017A899E2DD8
:101C20000E94470A87E0F50111928A95E9F799CE5B
:101C3000AEE0B0E0EEE1FEE00C942932288739876F
:101C40004A875B876C877D878E87CE0108960E94C6
:101C50007D0C8823A9F06C85662341F028853985A1
:101C60004A855B857D858E850E94510A809164023C
:101C70009091650289133EC02E96E2E00C944532A5
:101C800087E0FE013896DE01119601900D928A954B
:101C9000E1F78C85882351F38091650290E09C01E7
:101CA0002F5F3F4F2770332740916402421713067E
:101CB00099F067E070E00E949231DC01AA59BD4FB3
:101CC00097E0FE01319601900D929A95E1F72093ED
:101CD00065020E94CF0BCACF0E941A0A10926502B9
:101CE0001092640287E0EEE9F2E0DF011D928A952E
:101CF000E9F7BCCF90E067E070E00E9492318A592A
:101D00009D4F0E947D0C882309F4B6CF8091640218
:101D100090E067E070E00E949231FC01EA59FD4FCB
:101D200020813181428153816481758186810E9445
:101D3000510A8091640290E0019687709927809300
:101D4000640294CF682F8091F4019091F5010E9474
:101D50008C290895682F8091F4019091F5010E94DB
:101D60008F2908958091F4019091F5010E949229A4
:101D700008958091AD028695869586950895809107
:101D8000AD02877008959091AD02977081E009F4DB
:101D900080E008958091B90208959091B902892B4D
:101DA0008093B902089580959091B90298239093F9
:101DB000B90208951092B90208959091B802892B42
:101DC0008093B802089580959091B80298239093DB
:101DD000B80208951092B802089508950E94ED0E79
:101DE00008959091AE02292F282331F08095892300
:101DF0008093AE020E94EE0E089508950E94FD0E9B
:101E000008959091AF02292F2823281729F0982BA5
:101E10009093AF020E94FE0E08959091AF02292F79
:101E2000282331F0809589238093AF020E94FE0E13
:101E300008958091AF02882329F01092AF0280E0CC
:101E40000E94FE0E0895CF93DF93E091F401F0918C
:101E5000F5018091B9028083E091F401F091F501E0
:101E600080819091B802892B80839091AF02992351
:101E700081F0E091F401F091F5018081892B80835C
:101E80008091F4019091F5010E94442981110E94F2
:101E9000190FC091F401D091F50148E050E065EAD6
:101EA00072E0CE010E945032892B59F088E0FE0189
:101EB000A5EAB2E001900D928A95E1F7CE010E9469
:101EC0003929DF91CF91089508950E94640F0895F4
:101ED00090913D0392FF11C0982F990F990F990F80
:101EE000962B9093AD020E94920A8091AD02869546
:101EF000869586950E94650F08950E94920A08951E
:101F00001092AD0280E00E94650F08959091AD029D
:101F1000809589238093AD02282F277069F4891753
:101F200059F090913D0392FF07C08695869586955E
:101F30000E949E0A0E94800F089590913D0392FB9B
:101F4000222720F9281769F080FB92F990933D032E
:101F500080913C0390913D030E94E60F82E00E9435
:101F6000860F089580913D0382FB882780F991E0D8
:101F700089270E949D0F089581E00E949D0F08957A
:101F800080E00E949D0F08956FEF7FEF90E080E06A
:101F90000E94B232089590E080E00E947E32863E38
:101FA0009E4F19F40E948122089580E0089582E0F6
:101FB00090E00E947632089583E090E00E947632AD
:101FC000089584E090E00E947E320895BC0184E090
:101FD00090E00E94B2320895AB01BC018FE090E026
:101FE0000E94A6320895AB01BC0183E190E00E94FB
:101FF000A632089560E070E0CB010E94F30F0895CF
:1020000060E070E0CB010E94EC0F0E94FA0F08958F
:10201000A8E0B0E0EEE0F0E10C94293266EE7EEF4D
:1020200090E080E00E94B23260E082E090E00E94A6
:10203000943260E083E090E00E9494321092630258
:1020400060E074E184E090E00E94B23260E086E0FB
:1020500090E00E9494326FEF87E090E00E9494320B
:1020600040E050E0BA0188E090E00E94A63260E0D3
:1020700084E290E00E94943260E087E190E00E9468
:10208000943260E08CE090E00E94943260E08DE059
:1020900090E00E94943219821A821B821C821D8257
:1020A0001E821F82188648E050E068E170E0CE0191
:1020B00001960E94843240E050E0BA0180E290E054
:1020C0000E94A63280E00E949A220E94CA220E94A8
:1020D00000102896E2E00C9445320E940810089502
:1020E000682F8EE090E00E9494320895A6E0B0E060
:1020F000ECE7F0E10C9427320E94392A8C018091A0
:10210000BA029091BB028017910781F019821A825E
:102110000E94392A682F49815A81792F80E090E006
:102120000E9460071093BB020093BA022696E4E077
:102130000C9443320E94452A6093C8027093C902EE
:102140008093CA029093CB026093C4027093C5023D
:102150008093C6029093C7020895089508950E943F
:10216000AE10089508950E94B210089581E0089578
:1021700084E593E10E9422290E94AD100E94AF10D5
:1021800008950E94B61008950E94C1100895089500
:1021900008950E94C7100E94C81008950E947313EA
:1021A0000E9434070E943A2008950E94302A0E941B
:1021B000DA220E94BF020E94CE100E94B31008953E
:1021C000A6E0B0E0E6EEF0E10C941D320E94B610FD
:1021D00081110AC00E9476100E94671D0E94470765
:1021E0002696EEE00C9439320E940E032CEB822EE0
:1021F00022E0922E640110E0F601E190F1906F016F
:10220000812F0E94AC021F5F143009F44EC0E81603
:10221000F90691F38091CC0281FD0E94B5020E94E3
:10222000C410682E10E0812F0E94AC027C01F401E2
:10223000A190B1904F018A159B0589F1A826BF2472
:1022400000E0CC24C394D12CC5018C219D21892B85
:10225000E9F077247394C7018C219D21892B09F41F
:10226000712C662071F009831A830E94392A682F25
:102270008B839C8349815A81792F81E0972D0E941D
:102280006007472D602F812F0E94B41C0F5FCC0C7C
:10229000DD1C0031C9F6F4013297F182E0821F5F44
:1022A000143009F60E949A1097CFE816F90609F043
:1022B000B1CF90CF1F93CF93DF930E946F12EC01A9
:1022C000C11582E5D80708F03FC0C11590E5D907D0
:1022D00008F0C8C0C83ED105C0F4C03ED10580F4A6
:1022E000C53AD10548F4C430D10550F4C130D10508
:1022F00039F0D0E0C0E004C0CD3CD105D0F3D065CA
:10230000CE01DF91CF911F910895C11580E4D807C8
:1023100008F053C0C11590E2D90708F0BDC0C1153F
:1023200081E0D80730F38D2F0E941113182FCE01B2
:1023300099270E946F12C12FD0E0DC2FCC27CC2729
:10234000DF71C82BD92BDCCFC03892E5D907A8F4B0
:10235000C03682E5D80708F067C0C03492E5D907D7
:1023600008F04BC0C03282E5D80788F1CF71D0E0C9
:10237000DC2FCC27C16FD06AC3CFC03C92E5D90710
:1023800080F48C2F8F71C03AD24508F464C00E944B
:102390001113C82FD0E0DC2FCC27CC27DF71D062FF
:1023A000AFCFC03E82E5D80708F0A3CFDC2FCC2703
:1023B000CC27DF71C06FD06AA3CFCE0199270E94CE
:1023C0006F12CC27DF70C82BD92BD06A99CF2C2F56
:1023D0002695269530E085E0220F331F8A95E1F798
:1023E0008C2F8370C1E0D0E002C0CC0FDD1F8A9536
:1023F000E2F7C22BD32BDD6883CF2C2F26952695B1
:10240000277030E0B5E0220F331FBA95E1F78C2F2B
:102410008370C1E0D0E002C0CC0FDD1F8A95E2F7E7
:10242000C22BD32BDC686CCF2C2F269526952770DA
:1024300030E0A5E0220F331FAA95E1F78C2F8370BF
:10244000C1E0D0E002C0CC0FDD1F8A95E2F7C22BBD
:10245000D32BDA6855CFC82FD0E0DC2FCC27C46F40
:10246000D06A4ECF8C2F8F710E94111355E0D695F4
:10247000C7955A95E1F7CF70D0E0DC2FCC27282FF5
:1024800030E084FF05C044E0220F331F4A95E1F796
:10249000C22BD32BD06934CF8D2F8F710E94111393
:1024A000182FCE0199270E946F12C12FD0E0DC2F88
:1024B000CC27CC27DF71C82BD92B71CF462F743096
:1024C00030F4603120F4672F0E941F27089590E0B8
:1024D00080E008950E945E120E945A110895823889
:1024E0009105B9F1B0F48133910509F47DC048F448
:1024F0008932910509F46DC08A32910509F47BC0D7
:1025000008958533910509F45FC08933910509F178
:102510000895833E9105D9F138F4803E910529F163
:10252000823E910579F10895863E9105D9F1873E65
:10253000910509F43EC0843E910541F520913D038B
:1025400021FF24C080913C0384FD19C087EE90E0F8
:10255000089520913C03237009F05AC020913D0357
:1025600023FF14C089E290E0089520913C0320FDF0
:1025700038C030913D0330FF09C024FF43C090E0D4
:1025800080E0089520913C0322FDF7CF089520912B
:102590003C0322FD3AC030913D0330FD39C024FF99
:1025A000F5CFEDCF20913C0323FFF0CF24FDE7CF03
:1025B000CDCF20913C0323FD2EC030913D0331FF50
:1025C000EECF84EE90E0089520913C0325FFDECF0E
:1025D000C9CF20913C0325FD21C020913D0323FF5D
:1025E000D5CF89E390E0D2CF20913C0326FFCECF18
:1025F0008AE290E0089520913C0326FFC7CF81E353
:1026000090E0089583EE90E0089582EE90E00895C2
:1026100080EE90E0089586EE90E0089585E390E0E6
:10262000089590913C0392FF06C0282F287128300E
:10263000F9F4877F846093FF06C0282F2871283122
:10264000F1F4877E846120913D0320FF06C0382F7E
:1026500038713830D9F4877F816021FF06C0282F78
:1026600028712831D1F4877E816194FD877E089599
:10267000282F24712430F9F68B7F8860DCCF282F37
:102680002471243101F78B7E8861DDCF382F3171C1
:10269000313019F78E7F8860E0CF282F21712131EA
:1026A00021F78E7E8861E1CF80E008950E94C40FFB
:1026B00008950E940E032FEF86E791E0215080409D
:1026C0009040E1F700C000000E940E0380E00E94ED
:1026D000AC0280FF04C00E9456130E94A02A0895F5
:1026E0000E94591308950E94CB0F811102C00E94CD
:1026F0006D100E94D70F8093CC020E94E10F90933F
:102700003D0380933C030E9470130E94DC0F0E94E3
:10271000650A809162020E947D0A08950895CF9211
:10272000DF92EF92FF921F93CF93DF936C017B01B7
:10273000C42F222349F081E08093CF020E94392ADE
:102740009093CE028093CD021091CF0211110AC056
:1027500010E0812FDF91CF911F91FF90EF90DF90DC
:10276000CF9008958091CD029091CE020E94512A7F
:10277000059770F3D0E0CC0FDD1FAE01B601C701A5
:102780000E945032892B41F0AE01B601C7010E9470
:102790005D321092CF02DDCF10E0FBCF0E94182CEB
:1027A0000E94D5100E94252C08950E942A2C0E9478
:1027B000E0100E94442C08950E94D8290E94FE2B0C
:1027C0000E94B8100E94CE130E94D5130E94C91017
:1027D000FBCFEF92FF920F931F93CF93DF93982F2E
:1027E00071110FC0442329F0E82FF0E0EC51FE4FA7
:1027F0009491692F792F892FCDB7DEB7E6E00C943D
:102800004132262F30E0C72FD0E0E82FF0E04423FC
:1028100021F0EC51FE4FE491F0E0C90166E070E078
:102820000E9492310FEF10E0B8010E94A331DB014A
:10283000220F331FCB0165E570E00E949231281B07
:10284000390BE22EEE0CE20EC8018C1B9D0BBF0172
:102850000E949231292FF12CC701BE010E949231B2
:10286000492F50E0C801841B950BBF010E94923193
:10287000392FC8018E199F09BE010E949231492F3C
:1028800050E0C801841B950BBF010E949231892F33
:102890007E2FA230B10589F038F4109759F01197C6
:1028A00081F0922F232F06C0A430B10569F080F08B
:1028B0001697B9F7692F822F9FCF9E2F722F282F3F
:1028C000F9CF9E2F732FF6CF922F2E2F782FF2CF86
:1028D000722F2E2F932FEECF41E00E94E91308951F
:1028E000FC01A82F029710F14FEFE13E8EE1F807AF
:1028F00038F4AF0195E0569547959A95E1F7485F12
:10290000B1E08B2F840F9927991F9C01359527954E
:10291000A22FC901B9010E949231E817F90740F4CA
:102920004FEF420F4B1768F7AFEFAB0F8A2F0895A9
:102930002F3FE1F3B1E0B20FF5CF8091FC01909110
:10294000FD0165E078E00E949231875E994C90939A
:10295000FD018093FC01890F0895282F8074E22FD8
:1029600026FDE0956E2F6F7081116F5FE695E695FD
:10297000E695E670F0E0EF5DFD4F818170E090E05C
:102980000E949231AC0184E0559547958A95E1F714
:102990008081840F27FD819580580895CF93C62F9D
:1029A000382FA72FB0E0E42FF0E0EE0FFF1FE05C20
:1029B000FE4F808190E064EE70E00E949231492FDA
:1029C00050E0CA014C96821B910997FF03C0919574
:1029D0008195910923E0880F991F2A95E1F7AD01B0
:1029E000481B590BCA0157FF02C090E080E0BD01AF
:1029F0000E9492316C2F792F832FCF910895CF931E
:102A0000DF93D62FC72FA82FB0E0E42FF0E0EE0F12
:102A1000FF1FE05CFE4F808190E064EE70E00E945A
:102A20009231492F50E0445E5F4FCA01821B9109E9
:102A30009C0197FF03C031952195310983E0220F56
:102A4000331F8A95E1F7CD01821B930B97FF02C0DC
:102A500090E080E0BD010E9492316D2F7C2F892F84
:102A6000DF91CF910895622F0895E42FF0E0EE0FEB
:102A7000FF1FE05CFE4F6081621B0895E42FF0E0D1
:102A8000EE0FFF1FEF5BFE4F6081621B0895322F38
:102A900050E0FA01EE0FFF1FEF5BFE4F9081905266
:102AA00097FD9195440F551FFA01E05CFE4F208180
:102AB000231B330B290F311D97FD3A95620F0895A3
:102AC000EF920F93372F282F802F90E063E070E074
:102AD0000E949231959587956E2D680F732F822FE6
:102AE0000F91EF9008950F93CF93DF93D72FC82FB7
:102AF00047FD419568E370E0641B710947FD7395DC
:102B0000CB010E949231FC01C901B9010E949231AE
:102B10008E0F9F1F0E947014982F990F890F682F96
:102B2000600F7D2F8C2FDF91CF910F9108950F9320
:102B30001F93CF93A62FC72FB82F10E0F801EE0FE9
:102B4000FF1FEF5BFE4F8081622F220F770B8052B9
:102B5000990B0E9492319C01000F111FF801E05C5B
:102B6000FE4F8081642F440F770B8057990B0E9492
:102B70009231820F931F97FF02C081589F4F880F99
:102B8000892F881F990BA80F6A2F7C2F8B2FCF912D
:102B90001F910F9108950F931F93CF93A62FC72FC7
:102BA000B82F10E0F801EE0FFF1FE05CFE4F308100
:102BB000305737FD3195000F111FF801EF5BFE4FC5
:102BC0008081622F220F770B8052990B0E949231E5
:102BD000FC01642F440F770B88E390E0831B91097D
:102BE00037FD93950E9492318E0F9F1F63E070E036
:102BF0000E94923197FF02C081589F4F880F892F02
:102C0000881F990BA80F6A2F7C2F8B2FCF911F91B4
:102C10000F9108950F931F93CF93DF93D62F072F14
:102C2000182FC42F822F0E94AD14EC2FF0E0EE0F6E
:102C3000FF1FE05CFE4F20812058820F87FD8195A9
:102C4000880F90E06CE070E00E9492316D2F690F68
:102C5000702F812FDF91CF911F910F910895362F03
:102C6000B72FA82FE42FF0E0EE0FFF1FE05CFE4F20
:102C70008081821B87FD819590E068E170E00E9471
:102C80009231692F630F7B2F8A2F0895362F272FBC
:102C90004095682F70E0842F90E00E949231632F5E
:102CA000722F892F089522E8241B08F420E0620F78
:102CB00008959091F802892B8093F8020895FC0101
:102CC0009B01009729F480E077FF2BC080E80895EE
:102CD000AC0197FF04C044275527481B590BB90185
:102CE000640F751F37FD10C0241B350BC901A5E00B
:102CF000880F991FAA95E1F70E94B73180E2861BE1
:102D0000F7FF0FC081950895CB0165E0880F991FEB
:102D10006A95E1F7BA01621B730B0E94B73180E636
:102D2000EECF08950F931F93CF93DF93162FC72FE6
:102D3000D82FC901272F201B022FBA010E945F162E
:102D4000982F990F990F891B800F6C2F70E090E0DE
:102D50000E949231612F792F8D2FDF91CF911F919A
:102D60000F9108950F931F93CF93DF93162FD72FB3
:102D7000C82FC9012C2F201B022FBA010E945F16F9
:102D8000982F990F990F891B800F6C2F70E090E09E
:102D90000E949231612F7D2F892FDF91CF911F915A
:102DA0000F910895EF920F931F93CF93DF93162FF8
:102DB000C72FD82FC9010E19070FBA010E945F163D
:102DC000081B6C2F70E0802F90E00E949231612FE1
:102DD000792F8D2FDF91CF911F910F91EF90089553
:102DE000EF920F931F93CF93DF93162FD72FC82FF8
:102DF000C9010E190C0FBA010E945F16081B6C2F37
:102E000070E0802F90E00E949231612F7D2F892FFA
:102E1000DF91CF911F910F91EF9008950F93CF9372
:102E2000DF93D72FC82FC901BA010E945F16682F00
:102E3000600F7D2F8C2FDF91CF910F910895EF922E
:102E40000F93CF93DF93D72FC82FC9010E19BA0163
:102E50000E945F16602F681B7D2F8C2FDF91CF9112
:102E60000F91EF90089548E050E068E170E08EE344
:102E700093E00E9484321092F80208950E946C142C
:102E800008950E9433170895EEE3F3E085E380830D
:102E900080910A0290910B02A0910C02818392838F
:102EA000A3838FE784838FEF85830E943317089570
:102EB00080E008950F931F93CF93DF93C82FD62FF1
:102EC0008A010E9458176C2F70E094E0660F771FFC
:102ED0009A95E1F760507F4F6D0F711DFB01908156
:102EE0009F3F29F0F801E80FF11D90838F5FDF917C
:102EF000CF911F910F910895E0912F02F091300230
:102F000009950895E0912B02F0912C0209950895FE
:102F1000B0E0A0E0EEE8F7E10C941C325C014B015C
:102F2000FC0180816CE00E948931C82F1CE0180FE1
:102F3000F12E1D3310F09CE3F92E8091420386950B
:102F4000609146037091470390E00E949231592EA0
:102F5000D0E0CF1548F081E01C3308F080E0CDB719
:102F6000DEB7EFE00C943832FE01E854FE4F80816A
:102F7000F50191818923B1F19E01220F331F205069
:102F80003F4FF901E05CFF4F8081482F4057550BC0
:102F90006A012F5B3F4FF9018081282F2052330BAC
:102FA0003901CA01BA010E9492319C01C301B301E7
:102FB0000E949231820F931F0E947014082F60911B
:102FC0003F037091400380914103E52C9301A601DA
:102FD000F40109950E943E17462F282F672FCE0136
:102FE0000E9482172196B5CF62ED76E10E94881784
:102FF000089560EF76E10E948817089560E675E114
:103000000E94881708956FE177E10E94881708955C
:10301000B0E0A0E0EEE0F8E10C9421326C017B011D
:10302000FC0180816CE00E948931C82F1CE0180FE0
:10303000B12E1D3310F03CE3B32E809142038695F0
:10304000609146037091470390E00E949231A92E4F
:10305000D0E0CB1548F081E01C3308F080E0CDB71C
:10306000DEB7EAE00C943D32FE01E854FE4F808169
:10307000F6019181892311F1CE01880F991F8050AB
:103080009F4FFC01EF5BFF4F20812052330B805C90
:103090009F4FFC0140814057550B60913F03709159
:1030A0004003809141030A2DF70109950E943E17C4
:1030B000462F282F672FCE010E9482172196C9CF55
:1030C00062E976E10E940818089562EB76E10E94B9
:1030D0000818089563E775E10E94081808956EE0E6
:1030E00077E10E9408180895B0E0A0E0EAE7F8E16F
:1030F0000C9422326C017B01FC0180816CE00E9407
:103100008931C82F1CE0180F012F1D3308F00CE384
:10311000209142032695269531E0230F08F42FEFE6
:103120006091460370914703822F90E00E94923194
:10313000B92ED0E0C01748F081E01C3308F080E0E1
:10314000CDB7DEB7E9E00C943E32FE01E854FE4F05
:103150008081F6019181892391F060913F03709104
:103160004003809141032B2D4C2FF70109950E94BC
:103170003E17462F282F672FCE010E9482172196D7
:10318000D9CF6EEC74E10E94741808956FEF74E16A
:103190000E947418089563E375E10E9474180895FD
:1031A00065E375E10E94741808956EE375E10E946D
:1031B0007418089567E475E10E94741808956AE030
:1031C00076E10E94741808956FE276E10E94741807
:1031D0000895B0E0A0E0EFEEF8E10C941E325C013F
:1031E0006B01FC0180816CE00E948931C82F1CE0DA
:1031F000180F912E1D3310F03CE3932E8091420363
:1032000086958695609146037091470390E00E94F1
:103210009231F92E80E4890F0E94AD1490E8892E36
:10322000880E8F2D0E94AD1420E8722E780ED0E00B
:10323000C91548F081E01C3308F080E0CDB7DEB757
:10324000EDE00C943A32FE01E854FE4F8081F50126
:1032500091818923A1F060913F0370914003809197
:103260004103EF2C0C2F272D482DF60109950E94C4
:103270003E17462F282F672FCE010E9482172196D6
:10328000D7CF67E975E10E94E91808956BEC75E105
:103290000E94E9180895B0E0A0E0E1E5F9E10C949E
:1032A00021328C017B01FC0180816CE00E9489311C
:1032B000C82F2CE0B22EB80EAB2CFCE3FB1510F49B
:1032C0009CE3A92E2091420331E0230F08F42FEF55
:1032D00030E050E040E06FEF7FEF80E090E00E9450
:1032E000ED316901D0E09C2FCA1550F081E0FBE37D
:1032F000FB1508F480E0CDB7DEB7EAE00C943D3270
:10330000FE01E854FE4F8081F8012181822329F1DA
:1033100040914A034150042E000C550B47FF1FC03B
:10332000B6012091420331E0230F08F42FEF822FE2
:1033300090E00E94923160913F0370914003809130
:103340004103492F50E0F70109950E943E17462F8F
:10335000282F672FCE010E9482172196C4CFFA0131
:10336000E65BFC4F818989130AC0FA01EE0FFF1F4B
:10337000E65BFC4F618D728D6C157D0590F24150BE
:103380005109CCCF66E476E10E944B19089563E5BC
:1033900076E10E944B190895B0E0A0E0E2EDF9E17A
:1033A0000C9422327C01FC0180816CE00E94893106
:1033B000C82F1CE0180F012F1D3308F00CE360919B
:1033C0003F0370914003809141030E943E17D62E27
:1033D000C72EB82ED0E0C01748F081E01C3308F0AB
:1033E00080E0CDB7DEB7E9E00C943E32FE01E85450
:1033F000FE4F8081F7019181892331F02B2D4D2DD6
:103400006C2DCE010E9482172196E5CFB0E0A0E09E
:10341000ECE0FAE10C941F327C01FC0180816CE04D
:103420000E948931C82F1CE0180F012F1D3308F0AE
:103430000CE3C0904003D0904103D0913F036D2F27
:103440007C2D8D2D0E943E17B62EA72E982E6091B2
:1034500042036D0F7C2D8D2D0E943E17D62EC72E58
:10346000882ED0E0C01748F081E01C3308F080E0DF
:10347000CDB7DEB7ECE00C943B32FE01E854FE4FD2
:103480009081F7018181892359F0282D4D2D6C2DD4
:1034900090FD03C0292D4B2D6A2DCE010E9482176D
:1034A0002196E0CFB0E0A0E0E8E5FAE10C9422320A
:1034B0007C01FC0180816CE00E9489311CE0180FC6
:1034C000012F1D3308F00CE3D0904003C09041035E
:1034D0002091420330E096E0220F331F9A95E1F7E6
:1034E000B32EC82FD0E0C01748F081E01C3308F09D
:1034F00080E0CDB7DEB7E9E00C943E32FE01E8543F
:10350000FE4F8081F70191818923C1F0FE01EE0F0A
:10351000FF1FEF5BFE4F808182958F706B2D0E94A5
:10352000893160913F03680F7D2D8C2D0E943E17DD
:10353000462F282F672FCE010E9482172196D3CFC6
:10354000B0E0A0E0E6EAFAE10C9422327C01FC0152
:1035500080816CE00E9489311CE0180F012F1D331F
:1035600008F00CE3D0904003C09041032091420347
:1035700030E046E0220F331F4A95E1F7B32EC82F03
:10358000D0E0C01748F081E01C3308F080E0CDB7F0
:10359000DEB7E9E00C943E32FE01E854FE4F808134
:1035A000F70191818923E9F0FE01EE0FFF1FE05C36
:1035B000FE4F808190E06B2D70E00E94923125E0FB
:1035C000959587952A95E1F760913F03680F7D2DCA
:1035D0008C2D0E943E17462F282F672FCE010E9468
:1035E00082172196CECFB0E0A0E0E9EFFAE10C948B
:1035F00022328C01FC0180816CE00E948931C82F4D
:103600009CE0F92EF80EEF2CFCE3FF1510F48CE390
:10361000E82EC0903F03D0904003D09141038091A9
:10362000420386958695869560914603709147037F
:1036300090E00E949231892F0E94AD14805887FD3E
:103640008195880F6D2F70E090E00E949231B60155
:10365000892F0E943E17D62EC72EB82ED0E0CE1549
:1036600050F081E09BE39F1508F480E0CDB7DEB712
:10367000E9E00C943E32FE01E854FE4F8081F801EF
:103680009181892331F02B2D4D2D6C2DCE010E947F
:1036900082172196E4CFB0E0A0E0E1E5FBE10C94D5
:1036A00024328C01FC01E854FE4F8081682359F1DB
:1036B000D0904003D0914103C0913F03EC2EF12CF8
:1036C0000E949D14282FC7018C549F4F68E671E01B
:1036D0000E94B7318E199F0997FD0396BC0175951D
:1036E000679575956795822F83700E948931682F41
:1036F0006C0F7D2D8D2F0E943E17462F282F672F90
:10370000C8010E948217CDB7DEB7E7E00C944032C3
:10371000B0E0A0E0EEE8FBE10C9424327C01FC0177
:1037200080816CE00E9489319CE0D92ED80E928174
:1037300091112EC02091420330E1230F08F42FEFA6
:103740006091460370914703822F90E00E9492316E
:1037500020E0892F922F6AE070E00E94A331892B2C
:1037600069F40E949D1490E06CE370E00E94923135
:10377000F7016181892F90E00E944B1B81E0FBE300
:10378000FD1508F480E0CDB7DEB7E7E00C944032D9
:103790000D2DFCE3FD1508F40CE3C82FD0E010E07C
:1037A000C017D1075CF7F7016181CE010E944B1B66
:1037B0002196F6CF1F93CF93DF93EC01FC01E854E1
:1037C000FE4F80816823C1F00E949D14182F0E9433
:1037D0009D1490E09695982F8827979587957FE779
:1037E000790F612F809141030E943E17462F282FA9
:1037F000672FCE010E948217DF91CF911F9108950C
:10380000B0E0A0E0E6E0FCE10C9424327C01FC0195
:10381000C281C1112AC02091420330E1230F08F474
:103820002FEF6091460370914703822F90E00E9432
:10383000923120E0892F922F65E070E00E94A33141
:10384000892B69F40E949D1490E06CE370E00E9463
:103850009231F7016181892F90E00E94DA1B8C2F51
:10386000CDB7DEB7E7E00C94403280816CE00E9477
:1038700089319CE0D92ED80E0D2DFCE3FD1508F4FE
:103880000CE3C82FD0E010E0C017D10734F0C1E03E
:10389000FBE3FD1520F7C0E0E2CFF7016181CE0127
:1038A0000E94DA1B2196F0CFB0E0A0E0EAE5FCE14F
:1038B0000C9422328C01FC0180816CE00E948931E1
:1038C000C82F9CE0F92EF80EEF2CFCE3FF1510F446
:1038D0008CE3E82EC0904003D0904103D0913F0389
:1038E00080914203869586958695609146037091F6
:1038F000470390E00E949231892F0E94AD148058B6
:1039000087FD8195880F90E06CE070E00E94923115
:103910006D2F690F7C2D8D2D0E946C14D62EC72E15
:10392000B82ED0E0CE1550F081E09BE39F1508F44F
:1039300080E0CDB7DEB7E9E00C943E32FE01E854FA
:10394000FE4F8081F8019181892331F02B2D4D2D7F
:103950006C2DCE010E9482172196E4CFE0912D02BA
:10396000F0912E0209950895CF92DF92FF920F9366
:103970001F93CF93DF93CDB7DEB728970FB6F89498
:10398000DEBF0FBECDBF182F062FF42E0E94C11030
:10399000882309F454C01092260310922703109232
:1039A000280310922903FF2009F457C0AE014F5F8E
:1039B0005F4F602F812F0E945A17F82E0F2D10E0B5
:1039C0008091F902800F912F911D09976CF188E089
:1039D00090E06C01C01AD10AB80166507D4FA60173
:1039E0008AEF92E00E945D32B8016E5F7C4FA601C3
:1039F00082E093E00E945D32A601440F551FB8019A
:103A0000660F771F6E5E7C4F82E193E00E945D320D
:103A1000B801665F7C4FA6018AE093E00E945D32A8
:103A200088E08F198093F9021091F902DE01119656
:103A300040E0842F810FF41212C08093F90228967F
:103A40000FB6F894DEBF0FBECDBFDF91CF911F91AF
:103A50000F91FF90DF90CF900895F12CAFCF5D9143
:103A6000252F30E090E0BC0167507D4FF901EE0F4B
:103A7000FF1FE05CFE4F0081FB010183220F331F1B
:103A8000F901EF5BFE4F2081FB012187518B880FED
:103A9000991FFC01E750FD4F128E118E4F5FC9CF69
:103AA00081E008950E94501D089581E008950E94CC
:103AB000551D0895FC0180816CE00E948931682FBA
:103AC0008D3308F06CE38C500E94571D0895A4E0DC
:103AD000B0E0EDE6FDE10C941932609122037091A3
:103AE000230380912403909125030E94602A6B0197
:103AF0007C010E94452A1B012C0120922203309256
:103B00002303409224035092250380912603909131
:103B10002703A0912803B09129038C0D9D1DAE1D94
:103B2000BF1D8093260390932703A0932803B0938F
:103B300029036091F902E9EFF2E0762E70E0882423
:103B40008A94982CA12CB12C8C189D08AE08BF0823
:103B5000671321C07092F902712C81349747AB41F1
:103B6000B10548F480913E03982F9370792E19F097
:103B7000782E769476948091F6018130B1F1882385
:103B8000E9F0823009F453C2833009F45BC2249611
:103B9000E2E10C943532418D528D8A0130E020E013
:103BA00080169106A206B30620F47A947F5F3296BF
:103BB000CFCF4C0D5D1D528F418FF8CF1092F70182
:103BC00020924603309247034092480350924903A3
:103BD00089E2E9EFF2E0AAE4B3E001900D928A9560
:103BE000E1F781E08093F601D2CF8091FA0178125B
:103BF00024C090913E0393702091FB0130E081E05E
:103C00009217130609F480E081708093F901809186
:103C100043039091F801981739F08093F80140E040
:103C200060E080E00E94AE1C2EE1271588F0E72DB1
:103C3000F0E0EE5FFC4C0C940C3281E0E5CF80911B
:103C4000F901882359F040E060E080E00E94AE1C5A
:103C500080E004C087EF91E00E94CC199091F701B9
:103C60009F5F9093F7018111DEC182E08093F6019E
:103C70008091F9018111D7C1772009F4E1C10E9437
:103C8000521D87EF91E00E945A1D81CF87EF91E08E
:103C90000E94061AE3CF87EF91E00E94521ADECF0E
:103CA00087EF91E00E94A01AD9CF87EF91E00E94A0
:103CB000F31AD4CF87EF91E00E94C118CFCF87EFDE
:103CC00091E00E94C618CACF87EF91E00E94601869
:103CD000C5CF87EF91E00E946518C0CF87EF91E0D4
:103CE0000E94F417BBCF87EF91E00E94F917B6CF7F
:103CF00087EF91E00E94CB18B1CF87EF91E00E944F
:103D0000D018ACCF87EF91E00E94D518A7CF87EFEE
:103D100091E00E94DA18A2CF87EF91E00E94FE178F
:103D20009DCF87EF91E00E946A1898CF87EF91E0CE
:103D30000E946F1893CF87EF91E00E9403188ECFF7
:103D400087EF91E00E94411989CF87EF91E00E94AF
:103D5000461984CF87EF91E00E94881B7FCF87EFC1
:103D600091E00E94001C7ACF87EF91E00E94541CE2
:103D700075CF87EF91E00E94DF1870CF87EF91E059
:103D80000E94E4186BCF8091F7018F5F6CE00E9476
:103D90008931182F409146035091470360914803A1
:103DA000709149038091F4029091F502A091F6027E
:103DB000B091F70284179507A607B70708F057C018
:103DC0000E949D1490E06CE370E00E949231998310
:103DD0001A82E981FA81E854FE4F80819091F801BE
:103DE000892309F444C00E949D1420E040E060E073
:103DF00081FD15C00E949D14082F0E949D1490E023
:103E00009695982F8827979587957FE7790F602F4C
:103E1000809141030E943E17462F282F672F8981EA
:103E20009A810E9482176091420320E1620F08F498
:103E30006FEF70E024E0769567952A95E1F784EFBF
:103E400091E00E94A3318091460390914703A09195
:103E50004803B0914903860F971FA11DB11D8093A0
:103E6000F4029093F502A093F602B093F70281E07A
:103E70001C3308F4F3CEECCE8091F901882329F0AD
:103E800040E060E080E00E94AE1C8091F7018F5F0F
:103E90006CE00E948931282E4091460350914703DF
:103EA00060914803709149038091F0029091F10272
:103EB000A091F202B091F30284179507A607B70705
:103EC00008F08AC060913F037091400380914103E4
:103ED0000E943E17662E572E482E00ED12E080E01D
:103EE00091E09A83898390E4892E91E0992EC9808C
:103EF000DA8056017801312CF50181915F0190E063
:103F0000F7012081222309F46DC0242D462D652D53
:103F10000E948217F6018785242D462D652D90E09D
:103F20000E948217F701818181937F013394F1E030
:103F3000CF1AD10827E03212DFCFE981FA818781D9
:103F400090E0F8012781222309F457C0242D462D43
:103F5000652D0E948217E981FA818085242D462DE6
:103F6000652D90E00E9482170E949D14837091E05D
:103F700009F090E0F8019783085F1F4F29813A818B
:103F8000205F3F4F3A8329838216930609F0AFCF13
:103F90006091420320E1620F08F46FEF70E084E06B
:103FA000769567958A95E1F788EB9BE00E94A331AF
:103FB0008091460390914703A0914803B091490333
:103FC000860F971FA11DB11D8093F0029093F102FF
:103FD000A093F202B093F30281E03BE3321508F0C4
:103FE0003DCE36CE20E040E060E00E948217F60130
:103FF000878520E040E060E092CF20E040E060E094
:104000000E948217E981FA81808520E040E060E02B
:10401000A8CF87EF91E00E94C21920CE87EF91E0F0
:104020000E94C7191BCE772009F4B1CD28CE70921B
:10403000FA0180913E0383708093FB010E947C17FC
:1040400083E0D0CD8091F80281110E9433176091F6
:1040500046037091470380914803909149030E9461
:10406000602A603171058105910508F490CD1092A8
:10407000F6018DCDE0912902F0912A020995109266
:104080004A038FEF9FEF90936403809363039093B1
:10409000660380936503909368038093670390930E
:1040A0006A038093690390936C0380936B039093EE
:1040B0006E0380936D039093700380936F039093CE
:1040C0007203809371031092F9029093130380930B
:1040D0001203909315038093140390931703809316
:1040E0001603909319038093180390931B038093F6
:1040F0001A0390931D0380931C0390931F038093D6
:104100001E0390932103809320030E94CB0F811103
:1041100004C00E946D100E94441781E08093F80251
:1041200048E050E068E170E08EE393E00E94663280
:104130001092F80280913E038C7F11F40E94441784
:1041400008950895EEE3F3E0908121E092279083B3
:104150001092F6010E945916089580E00E94A22054
:10416000089581E00E94A220089580913E0383700B
:1041700011F41092F60180913E038C7F8160809350
:104180003E03089580913E03837011F01092F60172
:1041900080913E038C7F80933E03089580913E037F
:1041A0008370089590913E03937051F0811109C07E
:1041B000946090933E031092F601862F0E94591648
:1041C00008958F3110F09867F4CF282F220F220F17
:1041D000922BEFCF60E00E94D220089561E00E9410
:1041E000D220089580913E03869586950895682F84
:1041F00090913E039695969581E0890F8F3108F056
:1042000081E00E94D220089581E00E94F720089565
:10421000682F90913E03969596958FEF890F09F43C
:104220008EE10E94D220089581E00E940821089525
:1042300090913E03937061F080933F03609340033D
:10424000413A08F040EA40934103822F0E945916F8
:10425000089520E00E941821089580913F03089559
:10426000809140030895809141030895AEE3B3E047
:104270001196EC911197F0E0282F13964C9113971B
:1042800012966C91CF0102960E941821089581E048
:104290000E9436210895EEE3F3E09181282F4381B7
:1042A0006281E92FE250FF0BCF010E94182108958F
:1042B00081E00E944B210895EEE3F3E0628122E069
:1042C000620F08F46FEF9181282F4381892F90E0CE
:1042D0000E941821089581E00E945C210895EEE378
:1042E000F3E0628122E0621B08F460E09181282FF4
:1042F0004381892F90E00E941821089581E00E9457
:104300006F210895EEE3F3E0438122E0420F08F4C9
:104310004FEF9181282F6281892F90E00E94182110
:10432000089581E00E9482210895EEE3F3E0438145
:1043300022E0421B08F440E09181282F6281892FFE
:1043400090E00E941821089581E00E94952108952F
:104350008093420380E00E945916089580914203A1
:104360000895EEE3F3E0248132E0230F08F42FEF09
:1043700024830E945916089581E00E94B121089576
:10438000EEE3F3E0248132E0231B08F420E02483F1
:104390000E945916089581E00E94C0210895089551
:1043A000362F63E070E00E949231DC01AD58BC4FC3
:1043B00011963C9311974C93FD0122830895E3E7F6
:1043C000F3E0818360834283339694E0E732F90718
:1043D000C1F708956CE370E083E793E00E945422F4
:1043E0000895FA01811101C0FB01099508951F93F9
:1043F000CF93DF93EC01FB011581111110C00E94D6
:10440000CA0E8272FE01E052F847E531F10508F06C
:1044100049C0EF5DFC4C0C940C320E94B120812FFE
:10442000DF91CF911F91089544E151E264E071E280
:104430000E94F121F4CF44E051E264E171E2F8CF4F
:1044400048E551E267E471E2F3CF47E451E268E501
:1044500071E2EECF4EE751E26BE671E2E9CF4BE657
:1044600051E26EE771E2E4CF44EA51E261E971E2C0
:10447000DFCF41E951E264EA71E2DACF4BEC51E27D
:104480006CEB71E2D5CF4CEB51E26BEC71E2D0CF2B
:1044900081E00E94EE20C3CF85E0FBCF8DE0F9CF15
:1044A00082E1F7CF11E0BBCF9C01CB01529A4BB117
:1044B0004B7FEBB1E460FFB7F89463E070E00E94DB
:1044C0009231820F931F8217930741F4FFBF8FE54C
:1044D00094E00197F1F700C000000895D9015D91C3
:1044E0009D0168E0EBB9000000C057FF4BB9550FC4
:1044F000000000C000C000C04BB900C06A9591F731
:10450000E2CF85E290E00E947632833289F486E23F
:1045100090E00E947632883059F487E290E00E9461
:10452000763291E0833209F090E0892F817008950E
:1045300080E0FCCFCF93DF93D82FCFEF8111C3E280
:104540006C2F85E290E00E9494326FEFD11168E009
:1045500086E290E00E9494326C2F87E290E00E9405
:104560009432DF91CF910895089588E290E00E94FF
:104570007632682F70E090E080E008950895CF9340
:10458000C62F0E94BE226C2F88E290E00E949432D7
:10459000CF91089580E00E949A2260E070E0CB0104
:1045A0000E94BF220E94AB260E947A2781E00E94CF
:1045B0009A2208950E94B4220E94B5220E94BE222F
:1045C0000E948122811102C00E94CA2208950E9485
:1045D000AD2008959C01FB018581882351F0A9013C
:1045E00057574038510530F4822F0E948A2780E0C7
:1045F000089581E008952FEFFC012083089580E065
:104600000895CF93DF93EC0188818230F1F028F494
:10461000813071F0DF91CF9108958330E9F08430DB
:10462000C9F70E942D2189830E9430218A83F2CF0D
:104630000E94332190E06FEF70E00E94923160EAB7
:1046400070E00E94A3316983E5CF0E94CE208111E2
:104650000E94F2208983DECF0E94AE21FBCFCF9350
:10466000DF93EC018881823019F128F4813071F0F8
:10467000DF91CF910895833039F18430C9F70E94DA
:1046800033219981482F6A81892F0EC0898190E05A
:1046900060EA70E00E949231D92F0E943021C82F29
:1046A0000E942D214D2F6C2F90E00E942921E0CFF8
:1046B0008981811103C00E94C220DACF0E94B520F7
:1046C00089810E94EA20D4CF89810E94A821D0CF7D
:1046D000FC019C012E5F3F4F9081983041F0993052
:1046E00051F0973059F4C9010E942F230895C90150
:1046F0000E94012308950E94411708958FEF80833F
:104700000895FC012181233019F40E946823089543
:104710000E94FB220895B0E0A0E0E1E9F3E20C94EE
:104720002332EC01C62E0E94FF22811110C0E881C5
:10473000E150E331B8F4F0E0EA5CFC4C0C940C324C
:1047400019828CE08A836C2DCE010E940C2BCDB790
:10475000DEB7E8E00C943F3289818230C1F028F462
:10476000813061F08FEF8883EECF833099F0843011
:10477000C9F71A821B821C821D82E5CF0E94452A3E
:104780000E9412326A837B838C839D83DCCF0E94DC
:10479000B522F6CF8A81082F10E07E019EE0D92E47
:1047A000D80E0430110578F6802F0E94AC02F70174
:1047B000938384830F5F1F4FF2E0EF0EF11CD01242
:1047C000F0CFC1CF8981823031F0853059F68A81AE
:1047D0000E94E722B8CF6A817B818C819D810E94F3
:1047E00012320E94BF22AFCF4B816A8189810E9421
:1047F0006D269827892798279D838C83A4CF2C81A9
:104800003D813227232732274B816A8189810E948B
:104810008F2699CF0E94AB2696CF6C2DCE010E9499
:10482000812391CF0E942B2789838DCF0E942D2732
:104830009827892798279A83898385CF6B8170E091
:1048400089819A81AE014C5F5F4F9827892798270D
:104850000E94302778CF6B8170E089819A81AE0108
:104860004C5F5F4F9827892798270E9455276BCF69
:104870000E947A2768CF0E945626D6CF6B8170E0BF
:1048800089819A81AE014C5F5F4F982789279827CD
:104890000E94D72658CF6B8170E089819A81AE0142
:1048A0004C5F5F4F9827892798270E94FB264BCFA4
:1048B000CF93DF93EC01FB018581882309F4D2C0FB
:1048C0009E0130572332310508F0B2C00E94E10F3B
:1048D00090933D0380933C03FE01E150F047E232A8
:1048E000F10520F4E75BFC4C0C940C3280913C0306
:1048F000816080933C0393C080913D0388608093E6
:104900003D038DC080913C038260F3CF80913C03D6
:104910008460EFCF80913C038860EBCF80913D03B2
:104920008160EDCF80913D038260E9CF80913C03AF
:104930008061DFCF80913C038062DBCF80913C03BC
:104940008064D7CF0E941A0A80913C038068D1CF3F
:1049500080913C038C60CDCF80913D038360CFCFAD
:1049600080913C038E7FC5CF80913D03877FC7CF69
:1049700080913C038D7FBDCF80913C038B7FB9CF6D
:1049800080913C03877FB5CF80913D038E7FB7CF69
:1049900080913D038D7FB3CF80913C038F7EA9CF63
:1049A00080913C038F7DA5CF80913C038F7BA1CF6D
:1049B0000E941A0A80913C038F779BCF80913C0321
:1049C000837F97CF80913D038C7F99CF80913C036B
:1049D00082FB992790F921E0922790FB82F990FBC6
:1049E00083F987CF80913D03982F909591708E7FAA
:1049F000892B90FB81F983CF90913C03892F8F7B8A
:104A000096FF806476CF0E941A0A90913C03892F0A
:104A100097FB87F980586DCF81E00E9470108091DC
:104A20003C0390913D030E94E60F0E941A0A80E029
:104A3000DF91CF91089580E0F0CF90913C03892FD2
:104A40008F7E94FF806155CF90913C03892F8E7F9C
:104A500090FF81604ECF90913D03892F877F93FF18
:104A600088604DCF81E0E4CFB0E0A0E0EAE3F5E27A
:104A70000C942432E82FF0E0EC51FD4FD490282F15
:104A800026952695269530E0F901EC57FC4F0491C8
:104A9000877010E0082E02C0159507950A94E2F77A
:104AA00001701127F901EC58FC4FE490F12C082E0D
:104AB00002C0F594E7940A94E2F791E0E922FF241A
:104AC000F901EC59FC4FC491D0E002C0D595C795CF
:104AD0008A95E2F7C170DD270115110519F081EE05
:104AE0000E949907E114F10419F086EE0E949907DB
:104AF0008D2D0E94F407E114F10419F086EE0E9456
:104B0000C3070115110519F081EE0E94C307CD2BD3
:104B100019F08CE20E94F407CDB7DEB7E7E00C9401
:104B20004032EF92FF921F93CF93DF93EC01162F49
:104B30008881882309F451C0813009F04BC08981F4
:104B4000813099F47E0122E0E20EF11C8A810E94FC
:104B5000F407E7012196812F815050F3EFE9FFE040
:104B60003197F1F700C00000F7CF823041F47E01A9
:104B700082E0E80EF11C8A810E949907EACF833017
:104B800041F47E01E2E0EE0EF11C8A810E94C3072F
:104B9000E0CF843011F02196DDCF2A81229690E07B
:104BA00080E0FE0131962053330B2A30310548F066
:104BB000019780F2EFE9FFE03197F1F700C00000C4
:104BC000F7CF6AE070E00E949231820F931F298133
:104BD000EF01E7CF0E943425BDCFDF91CF911F9128
:104BE000FF90EF900895FF920F931F93CF93DF9361
:104BF0008C01F62EF8018491882309F452C081308B
:104C000009F04BC0E8012196FE018491813091F4B6
:104C10002196FE0184910E94F4078E010F5F1F4FC1
:104C20008F2D815038F3EFE9FFE03197F1F700C0A5
:104C30000000F7CF823039F4E8012296FE0184911A
:104C40000E949907EACF833039F4E8012296FE01E9
:104C500084910E94C307E1CF8430F9F6E8012296DF
:104C6000FE01249190E080E0FE0131962053330B49
:104C70002A30310548F0019780F2EFE9FFE03197E3
:104C8000F1F700C00000F7CF6AE070E00E949231B7
:104C9000820F931F2491EF01E7CF0E943425E80192
:104CA000BCCFCDB7DEB7E5E00C94423284E0089586
:104CB00070E095E0660F771F9A95E1F750E0440F9A
:104CC000551F640F751F90E09695982F882797952C
:104CD0008795860F971F899608950F931F93CF93FB
:104CE000DF938430C8F46430B8F44031A8F40E94F3
:104CF00058268C010E947632C82FD0E0DC2FCC27BA
:104D0000C80101960E9476329E01282BC901DF91CD
:104D1000CF911F910F91089590E080E0F8CF0F930D
:104D20001F93CF93DF93122F032F843078F46430D6
:104D300068F4403158F40E945826EC01602F0E941C
:104D40009432612FCE0101960E949432DF91CF916F
:104D50001F910F9108950F931F93CF93DF93D0E08E
:104D6000C0E010E019C00E94140621E030E08C176A
:104D70001D0639F034F0402F612F8C2F0E9416064B
:104D80009C01402F612F8C2F0E948F260F5F0031D6
:104D900051F71F5F143011F000E0E5CF2196C430C9
:104DA000D105F9F6DF91CF911F910F910895EF9200
:104DB000FF920F931F93CF93DF93EC018A017C0145
:104DC000E60EF71ECE018996CE15DF0529F4CDB784
:104DD000DEB7E6E00C944132C11522E0D20740F480
:104DE0000E947632F80180830F5F1F4F2196EACF31
:104DF000F8011082F9CFB0E0A0E0E1E0F7E20C9416
:104E000023327C016A018C01060F171FEC01CE01D1
:104E10008996C017D10729F4CDB7DEB7E8E00C9426
:104E20003F32C11522E0D20740F4FE01EE19FF091E
:104E3000EC0DFD1D60810E9494322196E8CF8430F4
:104E400038F4643028F4403118F40E946D26089537
:104E500090E080E0089580E1089587ED91E0089565
:104E6000EF92FF920F931F93CF93DF93EC018A0190
:104E70007C01E60EF71ECE01875D9D4FCE15DF0546
:104E800029F4CDB7DEB7E6E00C944132C73D21E00E
:104E9000D20740F40E947632F80180830F5F1F4FE3
:104EA0002196E9CFF8011082F9CFB0E0A0E0EBE560
:104EB000F7E20C9423327C016A018C01060F171F64
:104EC000EC01CE01875D9D4FC017D10729F4CDB706
:104ED000DEB7E8E00C943F32C73D21E0D20740F452
:104EE000FE01EE19FF09EC0DFD1D60810E94943258
:104EF0002196E7CFCF93DF93C9E2D2E060E0CE0105
:104F00000E9494322196C11584E0D807B9F7DF9149
:104F1000CF910895A8E0B0E0E0E9F7E20C942132E7
:104F2000F82E8FE08F1508F46EC08FEF93E00E948B
:104F30007632811168C009E212E0F11035C0FE013D
:104F400031966F0188E011928A95E9F77801FFEFB9
:104F5000EF1AFF0AC8010E94763289831A828823D9
:104F600009F451C08130D1F4580182E0A80EB11C7F
:104F7000C7010E9476328A83882309F444C09FEFD8
:104F8000980F9330F0F4780193E0E90EF11CC5011D
:104F90000E9476328B838823B1F11C8260E0C601C7
:104FA0000E9491258701D2CF011594E0190759F18C
:104FB000C8010E947632811101C0FA940F5F1F4F21
:104FC000BCCF7501843051F702E010E07501EFEFBE
:104FD000EE1AFE0AC5010E947632F601E00FF11FBB
:104FE0008083882381F08C3741F4E2E0F0E0EC0F1D
:104FF000FD1FE00FF11F1082D1CF0F5F1F4F570130
:105000000730110519F72896EAE00C943D32CF934A
:10501000DF93EB0186319C4711F50E94CA0E9D81FA
:10502000992399F08A7A91E009F490E090932A0309
:10503000811109C089E20E94A20E0E94230F80E024
:10504000DF91CF91089585E3F6CF80912A038111F6
:1050500004C089E20E94AA0EF0CF85E3FBCF81E075
:10506000EFCF0F931F93CF93DF93C42FD22FFC0169
:1050700085818823C9F040932D030E94392A90939B
:105080002C0380932B0380E28C0F883040F4C77090
:1050900081E001C0880FCA95EAF70E94FD07DF9101
:1050A000CF911F910F91089510912D03141332C0C9
:1050B00080912B0390912C030E94512A883C9105EA
:1050C00048F5C0E2CD0F1D17B9F080E2810F88309E
:1050D00040F4177081E001C0880F1A95EAF70E942A
:1050E0000408C83048F481E09D2F977001C0880FF4
:1050F0009A95EAF70E94FD07802F0E94F407C830B6
:1051000070F6D77081E001C0880FDA95EAF70E9447
:105110000408C5CF80E28C0F883008F6C77081E0A4
:1051200001C0880FCA95EAF7F2CF0F93DB018851CF
:105130009C4787309105A0F5FC01E559FC4C0C9487
:105140000C3206E221EE41EE6AE17CE7CD010E94DD
:10515000312880E00F91089507E225EE45EE6BE1DE
:105160007CE7F4CF06E221EE40EE68E17CE7EECF8B
:1051700007E225EE44EE69E17CE7E8CF06E221EEA6
:1051800042EE6CE17CE7E2CF07E225EE46EE6DE110
:105190007CE7DCCF08E221E045EE6EE17CE7D6CF8C
:1051A00015968C91882319F010922D03D3CF81E0AE
:1051B000D1CF1F93CF93DF9387372CE7920759F016
:1051C000C1E088379C47E1F4FB01C581CC2371F134
:1051D0000E941C2906C0FB01C581CC23B1F00E94AE
:1051E00019290E94920A0E941F29D82F0E941C2967
:1051F000C82F0E9419294D2F6C2F0E94C50BC0E0AB
:105200008C2FDF91CF911F9108950E9419290E9440
:105210009E0A0E941F29182F0E941C29D82F0E9425
:105220001929412F6D2F0E94C50BEACF0E941C291E
:10523000EECF8091000208958091FF010895809142
:10524000FE01089590933302809332020895909363
:105250002F0380932E030895E0912E03F0912F03E6
:10526000309729F00190F081E02D0995089580E0B4
:105270000895E0912E03F0912F03309721F00280E2
:10528000F381E02D099508959C012E5F3F4FAC01FD
:10529000485F5F4F80E02417350709F40895F9014E
:1052A00091919F019923B9F38F5FF5CF662349F060
:1052B000FC01329608962191261729F0E817F90784
:1052C000D1F780E0089581E008959C01FC013296B9
:1052D0009FEF80E04191461751F09F3F19F4411133
:1052E00001C0982F8F5F8630A9F79F3F09F408957A
:1052F000290F311D97FD3A95F90162830895FC014C
:10530000329608962191261303C0DF0111971C9253
:10531000E817F907B9F708950E94652908950E94D2
:105320007F290895029626E0FC0111922A95E9F75B
:10533000089508950E9499290895811106C081E079
:10534000809330030E949A29089582E0F9CF83E088
:10535000809330030E949A2908950E949D29089500
:1053600081E0809330030E949A2908950E94B02919
:105370000895089508950E94BA29089508950895FA
:105380000E94B9290895CF930E94BE290E940E035E
:105390000E94BF29C0E08C2F0E94AC02892B31F4FF
:1053A000CF5FC430C1F780E0CF91089581E0FCCF9A
:1053B00008951F921FB61F9211248F939F93AF934E
:1053C000BF9380913103811113C080912704909184
:1053D0002804A0912904B0912A044196A11DB11D71
:1053E0008093270490932804A0932904B0932A045F
:1053F000BF91AF919F918F911F901FBE1F901895E5
:1054000080912F04843031F10E940F0710923103F4
:1054100088E190E020E40FB6F894A89580936000AE
:105420000FBE2093600083B7817F846083BF83B702
:10543000816083BF7894889583B78E7F83BF0FB6D2
:10544000F894A89580916000886180936000109224
:1054500060000FBE08950E941A0A0E94190708955D
:1054600082E084BD93E095BD9AEF97BD80936E0076
:1054700008952FB7F8948091270490912804A09163
:105480002904B0912A042FBF08952FB7F894609192
:105490002704709128048091290490912A042FBF39
:1054A00008959C014FB7F8948091270490912804A7
:1054B000A0912904B0912A044FBF821B930B089539
:1054C000CF92DF92EF92FF922FB7F894C09027040B
:1054D000D0902804E0902904F0902A042FBFA7015F
:1054E0009601261B370B480B590BCA01B901FF90D7
:1054F000EF90DF90CF90089578941F921FB61F927F
:1055000011248F939F93AF93BF9380912704909121
:105510002804A0912904B0912A040196A11DB11D6F
:105520008093270490932804A0932904B0932A041D
:10553000BF91AF919F918F911F901FBE1F901895A3
:1055400081E08093E00080E28093D8001092C9004F
:105550008FE19EE40197F1F700C0000087E090EB37
:10556000DC018093380490933904A0933A04B093FB
:105570003B0488E19CE00FB6F894A8958093600006
:105580000FBE90936000FFCF88E19CE00FB6F894C7
:10559000A895809360000FBE90936000FFCF80912C
:1055A0003A030895089508959B01BA0190912F043C
:1055B0009430E9F48F708093E9009FEF8091E800C8
:1055C000915085FD06C085ED8A95F1F70000911197
:1055D000F5CF8091E80085FF0AC050E040E0C901A6
:1055E0000E94F22C8091E8008E778093E800089565
:1055F000CF93DF93EC0148E050E0BC0181E00E94D2
:10560000D42A88E0FE01A2E3B3E001900D928A95CE
:10561000E1F7DF91CF910895603231F440E250E03C
:10562000BC0182E00E94D42A08950E94B029089506
:1056300060912B0481E0611101C080E00E94A729E4
:10564000089590912F0481E0943009F080E06091FA
:105650002B040E94AD29089542E061EC81E00E9494
:10566000492E42E261EC82E00E94492E42E260EC67
:1056700083E00E94492E90912F0481E0943009F03C
:1056800080E060912B040E949D290895809131044F
:10569000833009F45FC030F48130C1F1823009F405
:1056A0009CC008958A3009F488C08B3009F46DC01D
:1056B000893009F04EC080913004813209F049C030
:1056C0008091340490913504892B09F042C0809177
:1056D000E800877F8093E8008091E80082FF35C072
:1056E0008091F200823031F48091F100813011F02C
:1056F000863021F48091F10080933A038091E80094
:105700008B778093E8000E947D2E23C08091300427
:10571000813AF9F48091E800877F8093E8008091D6
:10572000340490913504892B61F468E082E393E0BE
:1057300070E00E94902D8091E8008B778093E800C4
:10574000089560E090E080E0F3CF80912F04811114
:10575000C3CF089580913004813AD9F78091340401
:1057600090913504892BA9F78091E800877F809379
:10577000E8008091E80080FFFCCF809109028093CF
:10578000F1008091E8008E77BCCF809130048132A7
:1057900001F78091340490913504892BD1F68091E2
:1057A000E800877F8093E8000E947D2E809132047C
:1057B000809309020E941A0A089580913004813270
:1057C00041F68091E800877F8093E8000E947D2E5B
:1057D0008091330480933B03089580913004813A93
:1057E00009F0B7CF8091E800877F8093E80080912F
:1057F000E80080FFFCCF80913B03C1CF84B7877F57
:1058000084BF0FB6F894A89580916000886180935A
:105810006000109260000FBE80E890E00FB6F89430
:1058200080936100909361000FBE0E94B629089595
:105830000E94CD2E0E94202FE2EEF0E08081846055
:10584000808378940E946E31089581E092E00E94F6
:105850002729089580912F04853031F480912F04F9
:10586000853019F00E942B2A08950E94002A809109
:105870002D04882399F30E94C329882379F30E9479
:10588000DC2C0E941A0AEACFA0E2B0E0EAE4FCE2D3
:105890000C94293280912F04843009F583E08093A1
:1058A000E9008091E80082FF1AC08091E80090E052
:1058B00085FF09C050E040E060E270E0CE01019653
:1058C0000E94412D91E08091E8008B778093E80061
:1058D000992329F060E2CE0101960E948B23A096C5
:1058E000E2E00C9445329A0140913604509137041D
:1058F0000E947B2C0895E92FFF27E330F105E9F0A2
:1059000060F4E130F10509F448C0329709F44AC067
:10591000F0E0E0E090E080E025C0E132F10571F1D7
:10592000E232F105A9F76115710509F440C088E17B
:1059300094E061307105B1F0EBCF9927813091058A
:10594000B1F0009749F0029719F7E4E9F3E0E49128
:10595000F0E084E993E006C0E0ECF3E0E491F0E0ED
:1059600080EC93E0D9018D939C93CF010895EEEAEA
:10597000F3E0E491F0E08EEA93E0F4CFE9E0F0E0C8
:1059800086ED93E06115710569F3E9E0F0E08FEED3
:1059900093E06130710531F3BBCFE2E1F0E086E0E6
:1059A00094E0E0CFE2E4F0E084EC93E0DBCFE0E4ED
:1059B000F0E08AE394E0D6CF84E089BD86E089BD3B
:1059C00009B400FEFDCF8091D8008F7D8093D80070
:1059D0008091E00082608093E0008091E00081FD92
:1059E000FCCF0895AF92BF92CF92DF92FF920F93B8
:1059F0001F93CF93DF936C01EB018A010E949C2ED1
:105A0000F82E811123C00115110539F0F8018081AC
:105A10009181C81BD90BC80ED91EB12CA12C20977F
:105A2000A9F08091E80085FD22C08091E8008E7782
:105A30008093E80001151105A1F0F80180819181A2
:105A4000A80EB91EB182A08285E0F82E8F2DDF91BD
:105A5000CF911F910F91FF90DF90CF90BF90AF90AB
:105A600008950E949C2E8823D1F2F82EEFCFF601E4
:105A700081916F018093F1002197FFEFAF1ABF0A68
:105A8000CECFAF92BF92CF92DF92FF920F931F9330
:105A9000CF93DF936C01EB018A010E949C2EF82EBC
:105AA000811123C00115110539F0F8018081918120
:105AB000C81BD90BC80ED91EB12CA12C2097A9F058
:105AC0008091E80085FD22C08091E8008B7780936B
:105AD000E80001151105A1F0F80180819181A80E5F
